{
  "abi": [
    {
      "inputs": [
        {
          "components": [
            {
              "internalType": "string",
              "name": "name",
              "type": "string"
            },
            {
              "internalType": "string",
              "name": "description",
              "type": "string"
            },
            {
              "internalType": "string",
              "name": "image",
              "type": "string"
            },
            {
              "internalType": "string",
              "name": "attributes",
              "type": "string"
            }
          ],
          "internalType": "struct NFTDescriptor.TokenURIParams",
          "name": "params",
          "type": "tuple"
        }
      ],
      "name": "constructTokenURI",
      "outputs": [
        {
          "internalType": "string",
          "name": "",
          "type": "string"
        }
      ],
      "stateMutability": "pure",
      "type": "function"
    }
  ],
  "bytecode": {
    "object": "0x608060405234801561001057600080fd5b5061061a806100206000396000f3fe608060405234801561001057600080fd5b506004361061002b5760003560e01c806392b4c81b14610030575b600080fd5b61004361003e3660046102f2565b610059565b60405161005091906103ef565b60405180910390f35b606061009982600001518360200151846040015185606001516040516020016100859493929190610422565b6040516020818303038152906040526100bf565b6040516020016100a991906104f7565b6040516020818303038152906040529050919050565b606081516000036100de57505060408051602081019091526000815290565b60006040518060600160405280604081526020016105a5604091399050600060038451600261010d9190610552565b610117919061056b565b61012290600461058d565b90506000610131826020610552565b67ffffffffffffffff81111561014957610149610226565b6040519080825280601f01601f191660200182016040528015610173576020820181803683370190505b509050818152600183018586518101602084015b818310156101e15760039283018051603f601282901c811687015160f890811b8552600c83901c8216880151811b6001860152600683901c8216880151811b60028601529116860151901b93820193909352600401610187565b6003895106600181146101fb576002811461020c57610218565b613d3d60f01b600119830152610218565b603d60f81b6000198301525b509398975050505050505050565b634e487b7160e01b600052604160045260246000fd5b6040516080810167ffffffffffffffff8111828210171561025f5761025f610226565b60405290565b600082601f83011261027657600080fd5b813567ffffffffffffffff8082111561029157610291610226565b604051601f8301601f19908116603f011681019082821181831017156102b9576102b9610226565b816040528381528660208588010111156102d257600080fd5b836020870160208301376000602085830101528094505050505092915050565b60006020828403121561030457600080fd5b813567ffffffffffffffff8082111561031c57600080fd5b908301906080828603121561033057600080fd5b61033861023c565b82358281111561034757600080fd5b61035387828601610265565b82525060208301358281111561036857600080fd5b61037487828601610265565b60208301525060408301358281111561038c57600080fd5b61039887828601610265565b6040830152506060830135828111156103b057600080fd5b6103bc87828601610265565b60608301525095945050505050565b60005b838110156103e65781810151838201526020016103ce565b50506000910152565b602081526000825180602084015261040e8160408501602087016103cb565b601f01601f19169190910160400192915050565b683d913730b6b2911d1160b91b81528451600090610447816009850160208a016103cb565b71111610113232b9b1b934b83a34b7b7111d1160711b600991840191820152855161047981601b840160208a016103cb565b6c1116101134b6b0b3b2911d101160991b601b929091019182015284516104a78160288401602089016103cb565b71222c202261747472696275746573223a205b60701b6028929091019182015283516104da81603a8401602088016103cb565b615d7d60f01b603a9290910191820152603c019695505050505050565b7f646174613a6170706c69636174696f6e2f6a736f6e3b6261736536342c00000081526000825161052f81601d8501602087016103cb565b91909101601d0192915050565b634e487b7160e01b600052601160045260246000fd5b808201808211156105655761056561053c565b92915050565b60008261058857634e487b7160e01b600052601260045260246000fd5b500490565b80820281158282048414176105655761056561053c56fe4142434445464748494a4b4c4d4e4f505152535455565758595a6162636465666768696a6b6c6d6e6f707172737475767778797a303132333435363738392b2fa2646970667358221220eec3403704ecdefdeb9028a2825f72fcd59cf459001feca27c3fecd03a66e4b864736f6c63430008110033",
    "linkReferences": {}
  },
  "methodIdentifiers": {
    "constructTokenURI((string,string,string,string))": "92b4c81b"
  },
  "id": 2
}