{
  "abi": [
    {
      "inputs": [
        {
          "internalType": "address",
          "name": "_vouch",
          "type": "address"
        }
      ],
      "stateMutability": "nonpayable",
      "type": "constructor"
    },
    {
      "anonymous": false,
      "inputs": [
        {
          "indexed": true,
          "internalType": "address",
          "name": "from",
          "type": "address"
        },
        {
          "indexed": true,
          "internalType": "address",
          "name": "to",
          "type": "address"
        },
        {
          "indexed": true,
          "internalType": "uint256",
          "name": "id",
          "type": "uint256"
        }
      ],
      "name": "Transfer",
      "type": "event"
    },
    {
      "inputs": [],
      "name": "VOUCH_ID",
      "outputs": [
        {
          "internalType": "bytes32",
          "name": "",
          "type": "bytes32"
        }
      ],
      "stateMutability": "view",
      "type": "function"
    },
    {
      "inputs": [
        {
          "internalType": "address",
          "name": "spender",
          "type": "address"
        },
        {
          "internalType": "uint256",
          "name": "id",
          "type": "uint256"
        }
      ],
      "name": "approve",
      "outputs": [],
      "stateMutability": "nonpayable",
      "type": "function"
    },
    {
      "inputs": [
        {
          "internalType": "address",
          "name": "owner",
          "type": "address"
        }
      ],
      "name": "balanceOf",
      "outputs": [
        {
          "internalType": "uint256",
          "name": "",
          "type": "uint256"
        }
      ],
      "stateMutability": "view",
      "type": "function"
    },
    {
      "inputs": [
        {
          "components": [
            {
              "internalType": "string",
              "name": "name",
              "type": "string"
            },
            {
              "internalType": "string",
              "name": "description",
              "type": "string"
            },
            {
              "internalType": "string",
              "name": "image",
              "type": "string"
            },
            {
              "internalType": "string",
              "name": "attributes",
              "type": "string"
            }
          ],
          "internalType": "struct NFTDescriptor.TokenURIParams",
          "name": "params",
          "type": "tuple"
        }
      ],
      "name": "constructTokenURI",
      "outputs": [
        {
          "internalType": "string",
          "name": "",
          "type": "string"
        }
      ],
      "stateMutability": "pure",
      "type": "function"
    },
    {
      "inputs": [
        {
          "internalType": "uint256",
          "name": "tokenId",
          "type": "uint256"
        },
        {
          "internalType": "uint256",
          "name": "_lastUpdate",
          "type": "uint256"
        },
        {
          "internalType": "address",
          "name": "_sender",
          "type": "address"
        },
        {
          "internalType": "string",
          "name": "_msg",
          "type": "string"
        }
      ],
      "name": "dataURI",
      "outputs": [
        {
          "internalType": "string",
          "name": "",
          "type": "string"
        }
      ],
      "stateMutability": "view",
      "type": "function"
    },
    {
      "inputs": [
        {
          "internalType": "uint256",
          "name": "dayOfMonth",
          "type": "uint256"
        }
      ],
      "name": "dayOfMonthString",
      "outputs": [
        {
          "internalType": "string",
          "name": "",
          "type": "string"
        }
      ],
      "stateMutability": "pure",
      "type": "function"
    },
    {
      "inputs": [
        {
          "internalType": "address",
          "name": "sender",
          "type": "address"
        },
        {
          "internalType": "address",
          "name": "recipient",
          "type": "address"
        }
      ],
      "name": "doesVouch",
      "outputs": [
        {
          "internalType": "bool",
          "name": "",
          "type": "bool"
        }
      ],
      "stateMutability": "view",
      "type": "function"
    },
    {
      "inputs": [
        {
          "internalType": "uint256",
          "name": "tokenId",
          "type": "uint256"
        },
        {
          "internalType": "string",
          "name": "vouch",
          "type": "string"
        }
      ],
      "name": "generateAttributesList",
      "outputs": [
        {
          "internalType": "string",
          "name": "",
          "type": "string"
        }
      ],
      "stateMutability": "view",
      "type": "function"
    },
    {
      "inputs": [
        {
          "internalType": "string",
          "name": "_name",
          "type": "string"
        },
        {
          "internalType": "string",
          "name": "_description",
          "type": "string"
        },
        {
          "internalType": "string",
          "name": "_image",
          "type": "string"
        },
        {
          "internalType": "string",
          "name": "_attributes",
          "type": "string"
        }
      ],
      "name": "genericDataURI",
      "outputs": [
        {
          "internalType": "string",
          "name": "",
          "type": "string"
        }
      ],
      "stateMutability": "view",
      "type": "function"
    },
    {
      "inputs": [
        {
          "internalType": "address",
          "name": "_owner",
          "type": "address"
        }
      ],
      "name": "getOwnerVouches",
      "outputs": [
        {
          "internalType": "bytes32[]",
          "name": "",
          "type": "bytes32[]"
        }
      ],
      "stateMutability": "view",
      "type": "function"
    },
    {
      "inputs": [
        {
          "internalType": "address",
          "name": "recipient",
          "type": "address"
        },
        {
          "internalType": "bytes32",
          "name": "vouchId",
          "type": "bytes32"
        }
      ],
      "name": "mintVouch",
      "outputs": [
        {
          "internalType": "bool",
          "name": "success",
          "type": "bool"
        }
      ],
      "stateMutability": "nonpayable",
      "type": "function"
    },
    {
      "inputs": [
        {
          "internalType": "address",
          "name": "recipient",
          "type": "address"
        },
        {
          "internalType": "string",
          "name": "message",
          "type": "string"
        },
        {
          "internalType": "bytes",
          "name": "sig",
          "type": "bytes"
        }
      ],
      "name": "mintVouchFromSig",
      "outputs": [
        {
          "internalType": "bool",
          "name": "success",
          "type": "bool"
        }
      ],
      "stateMutability": "nonpayable",
      "type": "function"
    },
    {
      "inputs": [
        {
          "internalType": "uint256",
          "name": "month",
          "type": "uint256"
        }
      ],
      "name": "monthStringShort",
      "outputs": [
        {
          "internalType": "string",
          "name": "",
          "type": "string"
        }
      ],
      "stateMutability": "pure",
      "type": "function"
    },
    {
      "inputs": [],
      "name": "name",
      "outputs": [
        {
          "internalType": "string",
          "name": "",
          "type": "string"
        }
      ],
      "stateMutability": "view",
      "type": "function"
    },
    {
      "inputs": [
        {
          "internalType": "uint256",
          "name": "id",
          "type": "uint256"
        }
      ],
      "name": "ownerOf",
      "outputs": [
        {
          "internalType": "address",
          "name": "owner",
          "type": "address"
        }
      ],
      "stateMutability": "view",
      "type": "function"
    },
    {
      "inputs": [
        {
          "internalType": "address",
          "name": "from",
          "type": "address"
        },
        {
          "internalType": "address",
          "name": "to",
          "type": "address"
        },
        {
          "internalType": "uint256",
          "name": "id",
          "type": "uint256"
        }
      ],
      "name": "safeTransferFrom",
      "outputs": [],
      "stateMutability": "nonpayable",
      "type": "function"
    },
    {
      "inputs": [
        {
          "internalType": "address",
          "name": "from",
          "type": "address"
        },
        {
          "internalType": "address",
          "name": "to",
          "type": "address"
        },
        {
          "internalType": "uint256",
          "name": "id",
          "type": "uint256"
        },
        {
          "internalType": "bytes",
          "name": "data",
          "type": "bytes"
        }
      ],
      "name": "safeTransferFrom",
      "outputs": [],
      "stateMutability": "nonpayable",
      "type": "function"
    },
    {
      "inputs": [
        {
          "internalType": "address",
          "name": "operator",
          "type": "address"
        },
        {
          "internalType": "bool",
          "name": "approved",
          "type": "bool"
        }
      ],
      "name": "setApprovalForAll",
      "outputs": [],
      "stateMutability": "nonpayable",
      "type": "function"
    },
    {
      "inputs": [
        {
          "internalType": "bytes4",
          "name": "interfaceId",
          "type": "bytes4"
        }
      ],
      "name": "supportsInterface",
      "outputs": [
        {
          "internalType": "bool",
          "name": "",
          "type": "bool"
        }
      ],
      "stateMutability": "view",
      "type": "function"
    },
    {
      "inputs": [],
      "name": "symbol",
      "outputs": [
        {
          "internalType": "string",
          "name": "",
          "type": "string"
        }
      ],
      "stateMutability": "view",
      "type": "function"
    },
    {
      "inputs": [
        {
          "internalType": "uint256",
          "name": "timestamp",
          "type": "uint256"
        }
      ],
      "name": "timestampToDate",
      "outputs": [
        {
          "internalType": "uint256",
          "name": "year",
          "type": "uint256"
        },
        {
          "internalType": "uint256",
          "name": "month",
          "type": "uint256"
        },
        {
          "internalType": "uint256",
          "name": "day",
          "type": "uint256"
        }
      ],
      "stateMutability": "pure",
      "type": "function"
    },
    {
      "inputs": [
        {
          "internalType": "uint256",
          "name": "timestamp",
          "type": "uint256"
        }
      ],
      "name": "timestampToString",
      "outputs": [
        {
          "internalType": "string",
          "name": "",
          "type": "string"
        }
      ],
      "stateMutability": "pure",
      "type": "function"
    },
    {
      "inputs": [],
      "name": "tokenIds",
      "outputs": [
        {
          "internalType": "uint256",
          "name": "",
          "type": "uint256"
        }
      ],
      "stateMutability": "view",
      "type": "function"
    },
    {
      "inputs": [
        {
          "internalType": "uint256",
          "name": "",
          "type": "uint256"
        }
      ],
      "name": "tokenInfo",
      "outputs": [
        {
          "internalType": "bytes32",
          "name": "",
          "type": "bytes32"
        }
      ],
      "stateMutability": "view",
      "type": "function"
    },
    {
      "inputs": [
        {
          "internalType": "uint256",
          "name": "id",
          "type": "uint256"
        }
      ],
      "name": "tokenURI",
      "outputs": [
        {
          "internalType": "string",
          "name": "",
          "type": "string"
        }
      ],
      "stateMutability": "view",
      "type": "function"
    },
    {
      "inputs": [
        {
          "internalType": "address",
          "name": "from",
          "type": "address"
        },
        {
          "internalType": "address",
          "name": "to",
          "type": "address"
        },
        {
          "internalType": "uint256",
          "name": "id",
          "type": "uint256"
        }
      ],
      "name": "transferFrom",
      "outputs": [],
      "stateMutability": "nonpayable",
      "type": "function"
    },
    {
      "inputs": [],
      "name": "vouch",
      "outputs": [
        {
          "internalType": "contract Vouch",
          "name": "",
          "type": "address"
        }
      ],
      "stateMutability": "view",
      "type": "function"
    },
    {
      "inputs": [
        {
          "internalType": "bytes32",
          "name": "",
          "type": "bytes32"
        }
      ],
      "name": "vouchToken",
      "outputs": [
        {
          "internalType": "uint256",
          "name": "",
          "type": "uint256"
        }
      ],
      "stateMutability": "view",
      "type": "function"
    }
  ],
  "bytecode": {
    "object": "0x60806040523480156200001157600080fd5b5060405162002975380380620029758339810160408190526200003491620000be565b60405180604001604052806009815260200168159bdd58da0813919560ba1b815250604051806040016040528060058152602001640ac9eaa86960db1b815250816000908162000085919062000195565b50600162000094828262000195565b5050600580546001600160a01b0319166001600160a01b0393909316929092179091555062000261565b600060208284031215620000d157600080fd5b81516001600160a01b0381168114620000e957600080fd5b9392505050565b634e487b7160e01b600052604160045260246000fd5b600181811c908216806200011b57607f821691505b6020821081036200013c57634e487b7160e01b600052602260045260246000fd5b50919050565b601f8211156200019057600081815260208120601f850160051c810160208610156200016b5750805b601f850160051c820191505b818110156200018c5782815560010162000177565b5050505b505050565b81516001600160401b03811115620001b157620001b1620000f0565b620001c981620001c2845462000106565b8462000142565b602080601f831160018114620002015760008415620001e85750858301515b600019600386901b1c1916600185901b1785556200018c565b600085815260208120601f198616915b82811015620002325788860151825594840194600190910190840162000211565b5085821015620002515787850151600019600388901b60f8161c191681555b5050505050600190811b01905550565b61270480620002716000396000f3fe608060405234801561001057600080fd5b50600436106101c45760003560e01c806370a08231116100f9578063b7d168e611610097578063cc33c87511610071578063cc33c875146103b9578063de5101af146103d9578063f94e925d14610407578063fcfdd1191461042757600080fd5b8063b7d168e614610380578063b88d4fde14610393578063c87b56dd146103a657600080fd5b80638e36baad116100d35780638e36baad1461034457806392b4c81b1461035757806395d89b411461036a578063a22cb4651461037257600080fd5b806370a0823114610307578063714cff56146103285780637837abbe1461033157600080fd5b806328da670a116101665780634440e8af116101405780634440e8af146102a35780634a00defe146102ce578063588a9388146102e15780636352211e146102f457600080fd5b806328da670a1461026a578063304d6e2d1461027d57806342842e0e1461029057600080fd5b80630f4c1632116101a25780630f4c16321461021657806317b7c82d1461022957806320dde5bd1461023c57806323b872dd1461025c57600080fd5b806301ffc9a7146101c957806306fdde03146101f1578063095ea7b314610206575b600080fd5b6101dc6101d7366004611759565b61044e565b60405190151581526020015b60405180910390f35b6101f96104a0565b6040516101e891906117a7565b6102146101c43660046117f2565b005b6101f961022436600461181e565b61052e565b6101f9610237366004611922565b610718565b61024f61024a366004611968565b61074c565b6040516101e89190611985565b6102146101c43660046119c9565b6101dc610278366004611a0a565b6107c4565b6101f961028b36600461181e565b610842565b61021461029e3660046119c9565b6109a2565b6005546102b6906001600160a01b031681565b6040516001600160a01b0390911681526020016101e8565b6101dc6102dc3660046117f2565b6109aa565b6101f96102ef36600461181e565b610a0d565b6102b661030236600461181e565b610a69565b61031a610315366004611968565b610ac0565b6040519081526020016101e8565b61031a60045481565b6101f961033f366004611a43565b610b23565b6101dc610352366004611aed565b610c4c565b6101f9610365366004611b6f565b610da9565b6101f9610df9565b6102146101c4366004611c55565b6101f961038e366004611c83565b610e06565b6102146103a1366004611d23565b610e40565b6101f96103b436600461181e565b610e4f565b61031a6103c736600461181e565b60066020526000908152604090205481565b6103ec6103e736600461181e565b610fde565b604080519384526020840192909252908201526060016101e8565b61031a61041536600461181e565b60076020526000908152604090205481565b61031a7f2c74dac1fd3ae13388f7a55930dfea50b1d0adc16bacffd74160c1dd2170b28281565b60006301ffc9a760e01b6001600160e01b03198316148061047f57506380ac58cd60e01b6001600160e01b03198316145b8061049a5750635b5e139f60e01b6001600160e01b03198316145b92915050565b600080546104ad90611d84565b80601f01602080910402602001604051908101604052809291908181526020018280546104d990611d84565b80156105265780601f106104fb57610100808354040283529160200191610526565b820191906000526020600020905b81548152906001019060200180831161050957829003601f168201915b505050505081565b6060816001036105575750506040805180820190915260038152622530b760e91b602082015290565b8160020361057e5750506040805180820190915260038152622332b160e91b602082015290565b816003036105a557505060408051808201909152600381526226b0b960e91b602082015290565b816004036105cc57505060408051808201909152600381526220b83960e91b602082015290565b816005036105f35750506040805180820190915260038152624d617960e81b602082015290565b8160060361061a575050604080518082019091526003815262253ab760e91b602082015290565b81600703610641575050604080518082019091526003815262129d5b60ea1b602082015290565b8160080361066857505060408051808201909152600381526241756760e81b602082015290565b8160090361068f57505060408051808201909152600381526205365760ec1b602082015290565b81600a036106b657505060408051808201909152600381526213d8dd60ea1b602082015290565b81600b036106dd5750506040805180820190915260038152622737bb60e91b602082015290565b81600c0361070457505060408051808201909152600381526244656360e81b602082015290565b505060408051602081019091526000815290565b60608161072484610ff9565b604051602001610735929190611dbe565b604051602081830303815290604052905092915050565b600554604051630cacd00160e11b81526001600160a01b0383811660048301526060921690631959a00290602401600060405180830381865afa158015610797573d6000803e3d6000fd5b505050506040513d6000823e601f3d908101601f1916820160405261049a9190810190611e63565b505050565b60055460405163146d338560e11b81526001600160a01b038481166004830152838116602483015260009216906328da670a90604401602060405180830381865afa158015610817573d6000803e3d6000fd5b505050506040513d601f19601f8201168201806040525081019061083b9190611efc565b9392505050565b60608160010361086b5750506040805180820190915260038152620c5cdd60ea1b602082015290565b816002036108925750506040805180820190915260038152620c9b9960ea1b602082015290565b816003036108b95750506040805180820190915260038152620cdc9960ea1b602082015290565b816015036108e15750506040805180820190915260048152630c8c5cdd60e21b602082015290565b816016036109095750506040805180820190915260048152630c8c9b9960e21b602082015290565b816017036109315750506040805180820190915260048152630c8cdc9960e21b602082015290565b81601f036109595750506040805180820190915260048152630ccc5cdd60e21b602082015290565b601f821080156109695750600082115b1561099d5761097782610ff9565b6040516020016109879190611f19565b6040516020818303038152906040529050919050565b919050565b6107bf600080fd5b600081815260076020526040812054808203610a0357600480549060006109d083611f55565b90915550600081815260066020526040902084905590506109f18482611101565b60008381526007602052604090208190555b5060019392505050565b60606000806000610a1d8561120c565b925092509250610a2c81610842565b610a358361052e565b610a3e85610ff9565b604051602001610a5093929190611f6e565b6040516020818303038152906040529350505050919050565b6000818152600260205260409020546001600160a01b03168061099d5760405162461bcd60e51b815260206004820152600a6024820152691393d517d3525395115160b21b60448201526064015b60405180910390fd5b60006001600160a01b038216610b075760405162461bcd60e51b815260206004820152600c60248201526b5a45524f5f4144445245535360a01b6044820152606401610ab7565b506001600160a01b031660009081526003602052604090205490565b60606000610b3086610ff9565b604051602001610b409190611fc8565b60405160208183030381529060405290506000610b67610b6288888888611225565b6112d3565b604051602001610b779190611ff7565b60405160208183030381529060405290506000604051602001610c14907f54686973204e465420726570726573656e74732061207369676e6564206d657381527f736167652066726f6d20612073656e64657220746f207468697320616464726560208201527f73732e2054686973204e46542063616e6e6f74206265207472616e7366657265604082015261321760f11b606082015260620190565b60405160208183030381529060405290506000610c318987610718565b9050610c3f84838584610e06565b9998505050505050505050565b60055460405163626775d960e11b815260009182916001600160a01b039091169063c4ceebb290610c85908a908a908a90600401612065565b602060405180830381865afa158015610ca2573d6000803e3d6000fd5b505050506040513d601f19601f82011682018060405250810190610cc69190612093565b600081815260076020526040812054919250819003610d225760048054906000610cef83611f55565b9091555060008181526006602052604090208390559050610d108882611101565b60008281526007602052604090208190555b60055460405163034061c760e41b81526001600160a01b03909116906334061c7090610d5a908b908b908b908b908b906004016120ac565b6020604051808303816000875af1158015610d79573d6000803e3d6000fd5b505050506040513d601f19601f82011682018060405250810190610d9d9190611efc565b98975050505050505050565b6060610de98260000151836020015184604001518560600151604051602001610dd594939291906120e4565b6040516020818303038152906040526112d3565b60405160200161098791906121b9565b600180546104ad90611d84565b606060006040518060800160405280878152602001868152602001858152602001848152509050610e3681610da9565b9695505050505050565b610e48600080fd5b5050505050565b6005546000828152600660205260409081902054905163060eb2f560e01b8152600481019190915260609161049a9184916001600160a01b03169063060eb2f590602401602060405180830381865afa158015610eb0573d6000803e3d6000fd5b505050506040513d601f19601f82011682018060405250810190610ed49190612093565b60055460008681526006602052604090819020549051633daee4fb60e21b81526001600160a01b039092169163f6bb93ec91610f169160040190815260200190565b602060405180830381865afa158015610f33573d6000803e3d6000fd5b505050506040513d601f19601f82011682018060405250810190610f5791906121fe565b600554600087815260066020526040908190205490516331e1f5f760e01b81526001600160a01b03909216916331e1f5f791610f999160040190815260200190565b600060405180830381865afa158015610fb6573d6000803e3d6000fd5b505050506040513d6000823e601f3d908101601f1916820160405261033f919081019061221b565b6000806000610fec8461120c565b9196909550909350915050565b6060816000036110205750506040805180820190915260018152600360fc1b602082015290565b8160005b811561104a578061103481611f55565b91506110439050600a8361229e565b9150611024565b6000816001600160401b0381111561106457611064611837565b6040519080825280601f01601f19166020018201604052801561108e576020820181803683370190505b5090505b84156110f9576110a36001836122b2565b91506110b0600a866122c5565b6110bb9060306122d9565b60f81b8183815181106110d0576110d06122ec565b60200101906001600160f81b031916908160001a9053506110f2600a8661229e565b9450611092565b949350505050565b6001600160a01b03821661114b5760405162461bcd60e51b81526020600482015260116024820152701253959053125117d49150d25412515395607a1b6044820152606401610ab7565b6000818152600260205260409020546001600160a01b0316156111a15760405162461bcd60e51b815260206004820152600e60248201526d1053149150511657d3525395115160921b6044820152606401610ab7565b6001600160a01b038216600081815260036020908152604080832080546001019055848352600290915280822080546001600160a01b0319168417905551839291907fddf252ad1be2c89b69c2b068fc378daa952ba7f163c4a11628f55a4df523b3ef908290a45050565b60008080610fec611220620151808661229e565b611439565b606060405180610140016040528061010281526020016125cd610102913990508061124f85610a0d565b604051602001611260929190612302565b6040516020818303038152906040529050808260405160200161128492919061236a565b60405160208183030381529060405290508061129f846115ad565b6112a887610ff9565b6040516020016112ba9392919061240d565b6040516020818303038152906040529050949350505050565b606081516000036112f257505060408051602081019091526000815290565b600060405180606001604052806040815260200161258d604091399050600060038451600261132191906122d9565b61132b919061229e565b6113369060046124b1565b905060006113458260206122d9565b6001600160401b0381111561135c5761135c611837565b6040519080825280601f01601f191660200182016040528015611386576020820181803683370190505b509050818152600183018586518101602084015b818310156113f45760039283018051603f601282901c811687015160f890811b8552600c83901c8216880151811b6001860152600683901c8216880151811b60028601529116860151901b9382019390935260040161139a565b60038951066001811461140e576002811461141f5761142b565b613d3d60f01b60011983015261142b565b603d60f81b6000198301525b509398975050505050505050565b60008080838162253d8c6114508362010bd96124c8565b61145a91906124c8565b9050600062023ab161146d8360046124f0565b6114779190612520565b905060046114888262023ab16124f0565b6114939060036124c8565b61149d9190612520565b6114a7908361254e565b9150600062164b096114ba8460016124c8565b6114c690610fa06124f0565b6114d09190612520565b905060046114e0826105b56124f0565b6114ea9190612520565b6114f4908461254e565b6114ff90601f6124c8565b9250600061098f6115118560506124f0565b61151b9190612520565b90506000605061152d8361098f6124f0565b6115379190612520565b611541908661254e565b905061154e600b83612520565b945061155b85600c6124f0565b6115668360026124c8565b611570919061254e565b9150848361157f60318761254e565b61158a9060646124f0565b61159491906124c8565b61159e91906124c8565b9a919950975095505050505050565b606061049a6001600160a01b0383166014606060006115cd8360026124b1565b6115d89060026122d9565b6001600160401b038111156115ef576115ef611837565b6040519080825280601f01601f191660200182016040528015611619576020820181803683370190505b509050600360fc1b81600081518110611634576116346122ec565b60200101906001600160f81b031916908160001a905350600f60fb1b81600181518110611663576116636122ec565b60200101906001600160f81b031916908160001a90535060006116878460026124b1565b6116929060016122d9565b90505b600181111561170a576f181899199a1a9b1b9c1cb0b131b232b360811b85600f16601081106116c6576116c66122ec565b1a60f81b8282815181106116dc576116dc6122ec565b60200101906001600160f81b031916908160001a90535060049490941c9361170381612575565b9050611695565b50831561083b5760405162461bcd60e51b815260206004820181905260248201527f537472696e67733a20686578206c656e67746820696e73756666696369656e746044820152606401610ab7565b60006020828403121561176b57600080fd5b81356001600160e01b03198116811461083b57600080fd5b60005b8381101561179e578181015183820152602001611786565b50506000910152565b60208152600082518060208401526117c6816040850160208701611783565b601f01601f19169190910160400192915050565b6001600160a01b03811681146117ef57600080fd5b50565b6000806040838503121561180557600080fd5b8235611810816117da565b946020939093013593505050565b60006020828403121561183057600080fd5b5035919050565b634e487b7160e01b600052604160045260246000fd5b604051608081016001600160401b038111828210171561186f5761186f611837565b60405290565b604051601f8201601f191681016001600160401b038111828210171561189d5761189d611837565b604052919050565b60006001600160401b038211156118be576118be611837565b50601f01601f191660200190565b600082601f8301126118dd57600080fd5b81356118f06118eb826118a5565b611875565b81815284602083860101111561190557600080fd5b816020850160208301376000918101602001919091529392505050565b6000806040838503121561193557600080fd5b8235915060208301356001600160401b0381111561195257600080fd5b61195e858286016118cc565b9150509250929050565b60006020828403121561197a57600080fd5b813561083b816117da565b6020808252825182820181905260009190848201906040850190845b818110156119bd578351835292840192918401916001016119a1565b50909695505050505050565b6000806000606084860312156119de57600080fd5b83356119e9816117da565b925060208401356119f9816117da565b929592945050506040919091013590565b60008060408385031215611a1d57600080fd5b8235611a28816117da565b91506020830135611a38816117da565b809150509250929050565b60008060008060808587031215611a5957600080fd5b84359350602085013592506040850135611a72816117da565b915060608501356001600160401b03811115611a8d57600080fd5b611a99878288016118cc565b91505092959194509250565b60008083601f840112611ab757600080fd5b5081356001600160401b03811115611ace57600080fd5b602083019150836020828501011115611ae657600080fd5b9250929050565b600080600080600060608688031215611b0557600080fd5b8535611b10816117da565b945060208601356001600160401b0380821115611b2c57600080fd5b611b3889838a01611aa5565b90965094506040880135915080821115611b5157600080fd5b50611b5e88828901611aa5565b969995985093965092949392505050565b600060208284031215611b8157600080fd5b81356001600160401b0380821115611b9857600080fd5b9083019060808286031215611bac57600080fd5b611bb461184d565b823582811115611bc357600080fd5b611bcf878286016118cc565b825250602083013582811115611be457600080fd5b611bf0878286016118cc565b602083015250604083013582811115611c0857600080fd5b611c14878286016118cc565b604083015250606083013582811115611c2c57600080fd5b611c38878286016118cc565b60608301525095945050505050565b80151581146117ef57600080fd5b60008060408385031215611c6857600080fd5b8235611c73816117da565b91506020830135611a3881611c47565b60008060008060808587031215611c9957600080fd5b84356001600160401b0380821115611cb057600080fd5b611cbc888389016118cc565b95506020870135915080821115611cd257600080fd5b611cde888389016118cc565b94506040870135915080821115611cf457600080fd5b611d00888389016118cc565b93506060870135915080821115611d1657600080fd5b50611a99878288016118cc565b600080600080600060808688031215611d3b57600080fd5b8535611d46816117da565b94506020860135611d56816117da565b93506040860135925060608601356001600160401b03811115611d7857600080fd5b611b5e88828901611aa5565b600181811c90821680611d9857607f821691505b602082108103611db857634e487b7160e01b600052602260045260246000fd5b50919050565b7f7b2274726169745f74797065223a22566f756368222c2276616c7565223a2200815260008351611df681601f850160208801611783565b62089f4b60ea1b601f918401918201527f7b2274726169745f74797065223a22566f756368204944222c2276616c7565226022820152601d60f91b60428201528351611e49816043840160208801611783565b607d60f81b60439290910191820152604401949350505050565b60006020808385031215611e7657600080fd5b82516001600160401b0380821115611e8d57600080fd5b818501915085601f830112611ea157600080fd5b815181811115611eb357611eb3611837565b8060051b9150611ec4848301611875565b8181529183018401918481019088841115611ede57600080fd5b938501935b83851015610d9d57845182529385019390850190611ee3565b600060208284031215611f0e57600080fd5b815161083b81611c47565b60008251611f2b818460208701611783565b610e8d60f31b920191825250600201919050565b634e487b7160e01b600052601160045260246000fd5b600060018201611f6757611f67611f3f565b5060010190565b60008451611f80818460208901611783565b8083019050600160fd1b8082528551611fa0816001850160208a01611783565b60019201918201528351611fbb816002840160208801611783565b0160020195945050505050565b66566f756368202360c81b815260008251611fea816007850160208701611783565b9190910160070192915050565b7f646174613a696d6167652f7376672b786d6c3b6261736536342c00000000000081526000825161202f81601a850160208701611783565b91909101601a0192915050565b81835281816020850137506000828201602090810191909152601f909101601f19169091010190565b6001600160a01b038416815260406020820181905260009061208a908301848661203c565b95945050505050565b6000602082840312156120a557600080fd5b5051919050565b6001600160a01b03861681526060602082018190526000906120d1908301868861203c565b8281036040840152610d9d81858761203c565b683d913730b6b2911d1160b91b81528451600090612109816009850160208a01611783565b71111610113232b9b1b934b83a34b7b7111d1160711b600991840191820152855161213b81601b840160208a01611783565b6c1116101134b6b0b3b2911d101160991b601b92909101918201528451612169816028840160208901611783565b71222c202261747472696275746573223a205b60701b60289290910191820152835161219c81603a840160208801611783565b615d7d60f01b603a9290910191820152603c019695505050505050565b7f646174613a6170706c69636174696f6e2f6a736f6e3b6261736536342c0000008152600082516121f181601d850160208701611783565b91909101601d0192915050565b60006020828403121561221057600080fd5b815161083b816117da565b60006020828403121561222d57600080fd5b81516001600160401b0381111561224357600080fd5b8201601f8101841361225457600080fd5b80516122626118eb826118a5565b81815285602083850101111561227757600080fd5b61208a826020830160208601611783565b634e487b7160e01b600052601260045260246000fd5b6000826122ad576122ad612288565b500490565b8181038181111561049a5761049a611f3f565b6000826122d4576122d4612288565b500690565b8082018082111561049a5761049a611f3f565b634e487b7160e01b600052603260045260246000fd5b60008351612314818460208801611783565b835190830190612328818360208801611783565b7f3c2f746578743e3c7465787420783d2232302220793d2238302220636c6173739101908152671e913130b9b2911f60c11b6020820152602801949350505050565b6000835161237c818460208801611783565b835190830190612390818360208801611783565b7f3c2f746578743e3c7465787420783d2232302220793d223236352220636c617391019081527f733d2262617365223e66726f6d3a203c2f746578743e3c7465787420783d223260208201527f302220793d223239302220636c6173733d2262617365223e00000000000000006040820152605801949350505050565b6000845161241f818460208901611783565b845190830190612433818360208901611783565b8082019150507f3c2f746578743e3c7465787420783d223234302220793d223333302220636c61815271039b99e913130b9b2911f3b37bab1b41011960751b6020820152835161248a816032840160208801611783565b6c1e17ba32bc3a1f1e17b9bb339f60991b60329290910191820152603f0195945050505050565b808202811582820484141761049a5761049a611f3f565b80820182811260008312801582168215821617156124e8576124e8611f3f565b505092915050565b80820260008212600160ff1b8414161561250c5761250c611f3f565b818105831482151761049a5761049a611f3f565b60008261252f5761252f612288565b600160ff1b82146000198414161561254957612549611f3f565b500590565b818103600083128015838313168383128216171561256e5761256e611f3f565b5092915050565b60008161258457612584611f3f565b50600019019056fe4142434445464748494a4b4c4d4e4f505152535455565758595a6162636465666768696a6b6c6d6e6f707172737475767778797a303132333435363738392b2f3c73766720786d6c6e733d22687474703a2f2f7777772e77332e6f72672f323030302f73766722207072657365727665417370656374526174696f3d22784d696e594d696e206d656574222076696577426f783d223020302033353020333530223e3c7374796c653e2e62617365207b2066696c6c3a20233030343434303b20666f6e742d66616d696c793a2073657269663b20666f6e742d73697a653a20313570783b207d3c2f7374796c653e3c726563742077696474683d223130302522206865696768743d2231303025222066696c6c3d222365656535643322202f3e3c7465787420783d223235302220793d2234302220636c6173733d2262617365223ea2646970667358221220569f9662c376b643d541d061905ea6d96e45da472dc63b2d504ba264725a5b7f64736f6c63430008110033",
    "linkReferences": {}
  },
  "methodIdentifiers": {
    "VOUCH_ID()": "fcfdd119",
    "approve(address,uint256)": "095ea7b3",
    "balanceOf(address)": "70a08231",
    "constructTokenURI((string,string,string,string))": "92b4c81b",
    "dataURI(uint256,uint256,address,string)": "7837abbe",
    "dayOfMonthString(uint256)": "304d6e2d",
    "doesVouch(address,address)": "28da670a",
    "generateAttributesList(uint256,string)": "17b7c82d",
    "genericDataURI(string,string,string,string)": "b7d168e6",
    "getOwnerVouches(address)": "20dde5bd",
    "mintVouch(address,bytes32)": "4a00defe",
    "mintVouchFromSig(address,string,bytes)": "8e36baad",
    "monthStringShort(uint256)": "0f4c1632",
    "name()": "06fdde03",
    "ownerOf(uint256)": "6352211e",
    "safeTransferFrom(address,address,uint256)": "42842e0e",
    "safeTransferFrom(address,address,uint256,bytes)": "b88d4fde",
    "setApprovalForAll(address,bool)": "a22cb465",
    "supportsInterface(bytes4)": "01ffc9a7",
    "symbol()": "95d89b41",
    "timestampToDate(uint256)": "de5101af",
    "timestampToString(uint256)": "588a9388",
    "tokenIds()": "714cff56",
    "tokenInfo(uint256)": "cc33c875",
    "tokenURI(uint256)": "c87b56dd",
    "transferFrom(address,address,uint256)": "23b872dd",
    "vouch()": "4440e8af",
    "vouchToken(bytes32)": "f94e925d"
  },
  "id": 14
}