{
  "abi": [
    {
      "anonymous": false,
      "inputs": [
        {
          "indexed": true,
          "internalType": "string",
          "name": "_name",
          "type": "string"
        },
        {
          "indexed": false,
          "internalType": "string",
          "name": "_data",
          "type": "string"
        }
      ],
      "name": "DocumentRemoved",
      "type": "event"
    },
    {
      "anonymous": false,
      "inputs": [
        {
          "indexed": true,
          "internalType": "string",
          "name": "_name",
          "type": "string"
        },
        {
          "indexed": false,
          "internalType": "string",
          "name": "_data",
          "type": "string"
        }
      ],
      "name": "DocumentUpdated",
      "type": "event"
    },
    {
      "inputs": [],
      "name": "getAllDocuments",
      "outputs": [
        {
          "internalType": "string[]",
          "name": "",
          "type": "string[]"
        }
      ],
      "stateMutability": "view",
      "type": "function"
    },
    {
      "inputs": [
        {
          "internalType": "string",
          "name": "_name",
          "type": "string"
        }
      ],
      "name": "getDocument",
      "outputs": [
        {
          "internalType": "string",
          "name": "",
          "type": "string"
        },
        {
          "internalType": "uint256",
          "name": "",
          "type": "uint256"
        }
      ],
      "stateMutability": "view",
      "type": "function"
    },
    {
      "inputs": [],
      "name": "getDocumentCount",
      "outputs": [
        {
          "internalType": "uint256",
          "name": "",
          "type": "uint256"
        }
      ],
      "stateMutability": "view",
      "type": "function"
    },
    {
      "inputs": [
        {
          "internalType": "uint256",
          "name": "_index",
          "type": "uint256"
        }
      ],
      "name": "getDocumentName",
      "outputs": [
        {
          "internalType": "string",
          "name": "",
          "type": "string"
        }
      ],
      "stateMutability": "view",
      "type": "function"
    }
  ],
  "bytecode": {
    "object": "0x608060405234801561001057600080fd5b50610550806100206000396000f3fe608060405234801561001057600080fd5b506004361061004c5760003560e01c80633d1c2273146100515780637ccb6a64146100675780639fa5f50b14610088578063c6b547e61461009d575b600080fd5b6002546040519081526020015b60405180910390f35b61007a61007536600461034b565b6100bd565b60405161005e929190610403565b6100906101b4565b60405161005e9190610425565b6100b06100ab366004610487565b61028d565b60405161005e91906104a0565b606060008084846040516100d29291906104ba565b9081526020016040518091039020600101600085856040516100f59291906104ba565b90815260405190819003602001902054815467ffffffffffffffff64010000000090920491909116908290610129906104ca565b80601f0160208091040260200160405190810160405280929190818152602001828054610155906104ca565b80156101a25780601f10610177576101008083540402835291602001916101a2565b820191906000526020600020905b81548152906001019060200180831161018557829003601f168201915b50505050509150915091509250929050565b60606002805480602002602001604051908101604052809291908181526020016000905b828210156102845783829060005260206000200180546101f7906104ca565b80601f0160208091040260200160405190810160405280929190818152602001828054610223906104ca565b80156102705780601f1061024557610100808354040283529160200191610270565b820191906000526020600020905b81548152906001019060200180831161025357829003601f168201915b5050505050815260200190600101906101d8565b50505050905090565b600254606090821061029e57600080fd5b600282815481106102b1576102b1610504565b9060005260206000200180546102c6906104ca565b80601f01602080910402602001604051908101604052809291908181526020018280546102f2906104ca565b801561033f5780601f106103145761010080835404028352916020019161033f565b820191906000526020600020905b81548152906001019060200180831161032257829003601f168201915b50505050509050919050565b6000806020838503121561035e57600080fd5b823567ffffffffffffffff8082111561037657600080fd5b818501915085601f83011261038a57600080fd5b81358181111561039957600080fd5b8660208285010111156103ab57600080fd5b60209290920196919550909350505050565b6000815180845260005b818110156103e3576020818501810151868301820152016103c7565b506000602082860101526020601f19601f83011685010191505092915050565b60408152600061041660408301856103bd565b90508260208301529392505050565b6000602080830181845280855180835260408601915060408160051b870101925083870160005b8281101561047a57603f198886030184526104688583516103bd565b9450928501929085019060010161044c565b5092979650505050505050565b60006020828403121561049957600080fd5b5035919050565b6020815260006104b360208301846103bd565b9392505050565b8183823760009101908152919050565b600181811c908216806104de57607f821691505b6020821081036104fe57634e487b7160e01b600052602260045260246000fd5b50919050565b634e487b7160e01b600052603260045260246000fdfea264697066735822122049302b4c3bdcb1a3a197a50ac5b2ba72e0993dff5fbdb7e16fbb0afb8db4ff4764736f6c63430008110033",
    "linkReferences": {}
  },
  "methodIdentifiers": {
    "getAllDocuments()": "9fa5f50b",
    "getDocument(string)": "7ccb6a64",
    "getDocumentCount()": "3d1c2273",
    "getDocumentName(uint256)": "c6b547e6"
  },
  "id": 6
}