{
  "abi": [
    {
      "anonymous": false,
      "inputs": [
        {
          "indexed": true,
          "internalType": "string",
          "name": "_name",
          "type": "string"
        },
        {
          "indexed": false,
          "internalType": "string",
          "name": "_data",
          "type": "string"
        }
      ],
      "name": "DocumentRemoved",
      "type": "event"
    },
    {
      "anonymous": false,
      "inputs": [
        {
          "indexed": true,
          "internalType": "string",
          "name": "_name",
          "type": "string"
        },
        {
          "indexed": false,
          "internalType": "string",
          "name": "_data",
          "type": "string"
        }
      ],
      "name": "DocumentUpdated",
      "type": "event"
    },
    {
      "anonymous": false,
      "inputs": [
        {
          "indexed": true,
          "internalType": "address",
          "name": "from",
          "type": "address"
        },
        {
          "indexed": true,
          "internalType": "address",
          "name": "to",
          "type": "address"
        },
        {
          "indexed": true,
          "internalType": "uint256",
          "name": "id",
          "type": "uint256"
        }
      ],
      "name": "Transfer",
      "type": "event"
    },
    {
      "inputs": [],
      "name": "VOUCH_ID",
      "outputs": [
        {
          "internalType": "bytes32",
          "name": "",
          "type": "bytes32"
        }
      ],
      "stateMutability": "view",
      "type": "function"
    },
    {
      "inputs": [],
      "name": "VOUCH_MSG",
      "outputs": [
        {
          "internalType": "string",
          "name": "",
          "type": "string"
        }
      ],
      "stateMutability": "view",
      "type": "function"
    },
    {
      "inputs": [],
      "name": "VOUCH_NAME",
      "outputs": [
        {
          "internalType": "string",
          "name": "",
          "type": "string"
        }
      ],
      "stateMutability": "view",
      "type": "function"
    },
    {
      "inputs": [
        {
          "internalType": "address",
          "name": "spender",
          "type": "address"
        },
        {
          "internalType": "uint256",
          "name": "id",
          "type": "uint256"
        }
      ],
      "name": "approve",
      "outputs": [],
      "stateMutability": "nonpayable",
      "type": "function"
    },
    {
      "inputs": [
        {
          "internalType": "address",
          "name": "owner",
          "type": "address"
        }
      ],
      "name": "balanceOf",
      "outputs": [
        {
          "internalType": "uint256",
          "name": "",
          "type": "uint256"
        }
      ],
      "stateMutability": "view",
      "type": "function"
    },
    {
      "inputs": [
        {
          "internalType": "string",
          "name": "",
          "type": "string"
        }
      ],
      "name": "barcodes",
      "outputs": [
        {
          "internalType": "address",
          "name": "",
          "type": "address"
        }
      ],
      "stateMutability": "view",
      "type": "function"
    },
    {
      "inputs": [
        {
          "components": [
            {
              "internalType": "string",
              "name": "name",
              "type": "string"
            },
            {
              "internalType": "string",
              "name": "description",
              "type": "string"
            },
            {
              "internalType": "string",
              "name": "image",
              "type": "string"
            },
            {
              "internalType": "string",
              "name": "attributes",
              "type": "string"
            }
          ],
          "internalType": "struct NFTDescriptor.TokenURIParams",
          "name": "params",
          "type": "tuple"
        }
      ],
      "name": "constructTokenURI",
      "outputs": [
        {
          "internalType": "string",
          "name": "",
          "type": "string"
        }
      ],
      "stateMutability": "pure",
      "type": "function"
    },
    {
      "inputs": [
        {
          "internalType": "uint256",
          "name": "tokenId",
          "type": "uint256"
        },
        {
          "internalType": "uint256",
          "name": "_lastUpdate",
          "type": "uint256"
        },
        {
          "internalType": "address",
          "name": "_sender",
          "type": "address"
        },
        {
          "internalType": "address",
          "name": "_recipient",
          "type": "address"
        },
        {
          "internalType": "string",
          "name": "_msg",
          "type": "string"
        },
        {
          "internalType": "string",
          "name": "_barcode",
          "type": "string"
        }
      ],
      "name": "dataURI",
      "outputs": [
        {
          "internalType": "string",
          "name": "",
          "type": "string"
        }
      ],
      "stateMutability": "view",
      "type": "function"
    },
    {
      "inputs": [
        {
          "internalType": "uint256",
          "name": "dayOfMonth",
          "type": "uint256"
        }
      ],
      "name": "dayOfMonthString",
      "outputs": [
        {
          "internalType": "string",
          "name": "",
          "type": "string"
        }
      ],
      "stateMutability": "pure",
      "type": "function"
    },
    {
      "inputs": [
        {
          "internalType": "address",
          "name": "",
          "type": "address"
        },
        {
          "internalType": "address",
          "name": "",
          "type": "address"
        }
      ],
      "name": "doesVouch",
      "outputs": [
        {
          "internalType": "bool",
          "name": "",
          "type": "bool"
        }
      ],
      "stateMutability": "view",
      "type": "function"
    },
    {
      "inputs": [
        {
          "internalType": "bytes32",
          "name": "hash",
          "type": "bytes32"
        },
        {
          "internalType": "bytes",
          "name": "sig",
          "type": "bytes"
        }
      ],
      "name": "ecrecoverFromSig",
      "outputs": [
        {
          "internalType": "address",
          "name": "recoveredAddress",
          "type": "address"
        }
      ],
      "stateMutability": "pure",
      "type": "function"
    },
    {
      "inputs": [
        {
          "internalType": "uint256",
          "name": "tokenId",
          "type": "uint256"
        },
        {
          "internalType": "string",
          "name": "vouch",
          "type": "string"
        }
      ],
      "name": "generateAttributesList",
      "outputs": [
        {
          "internalType": "string",
          "name": "",
          "type": "string"
        }
      ],
      "stateMutability": "view",
      "type": "function"
    },
    {
      "inputs": [
        {
          "internalType": "address",
          "name": "sender",
          "type": "address"
        },
        {
          "internalType": "address",
          "name": "recipient",
          "type": "address"
        },
        {
          "internalType": "string",
          "name": "message",
          "type": "string"
        }
      ],
      "name": "generateVouchHash",
      "outputs": [
        {
          "internalType": "bytes32",
          "name": "hash",
          "type": "bytes32"
        }
      ],
      "stateMutability": "view",
      "type": "function"
    },
    {
      "inputs": [
        {
          "internalType": "string",
          "name": "_name",
          "type": "string"
        },
        {
          "internalType": "string",
          "name": "_description",
          "type": "string"
        },
        {
          "internalType": "string",
          "name": "_image",
          "type": "string"
        },
        {
          "internalType": "string",
          "name": "_attributes",
          "type": "string"
        }
      ],
      "name": "genericDataURI",
      "outputs": [
        {
          "internalType": "string",
          "name": "",
          "type": "string"
        }
      ],
      "stateMutability": "view",
      "type": "function"
    },
    {
      "inputs": [],
      "name": "getAllDocuments",
      "outputs": [
        {
          "internalType": "string[]",
          "name": "",
          "type": "string[]"
        }
      ],
      "stateMutability": "view",
      "type": "function"
    },
    {
      "inputs": [
        {
          "internalType": "string",
          "name": "_name",
          "type": "string"
        }
      ],
      "name": "getDocument",
      "outputs": [
        {
          "internalType": "string",
          "name": "",
          "type": "string"
        },
        {
          "internalType": "uint256",
          "name": "",
          "type": "uint256"
        }
      ],
      "stateMutability": "view",
      "type": "function"
    },
    {
      "inputs": [],
      "name": "getDocumentCount",
      "outputs": [
        {
          "internalType": "uint256",
          "name": "",
          "type": "uint256"
        }
      ],
      "stateMutability": "view",
      "type": "function"
    },
    {
      "inputs": [
        {
          "internalType": "uint256",
          "name": "_index",
          "type": "uint256"
        }
      ],
      "name": "getDocumentName",
      "outputs": [
        {
          "internalType": "string",
          "name": "",
          "type": "string"
        }
      ],
      "stateMutability": "view",
      "type": "function"
    },
    {
      "inputs": [
        {
          "internalType": "string",
          "name": "barcode",
          "type": "string"
        }
      ],
      "name": "getUserFromVouch",
      "outputs": [
        {
          "internalType": "address",
          "name": "user",
          "type": "address"
        }
      ],
      "stateMutability": "view",
      "type": "function"
    },
    {
      "inputs": [
        {
          "internalType": "address",
          "name": "_user",
          "type": "address"
        }
      ],
      "name": "getUserVouches",
      "outputs": [
        {
          "internalType": "bytes32[]",
          "name": "",
          "type": "bytes32[]"
        }
      ],
      "stateMutability": "view",
      "type": "function"
    },
    {
      "inputs": [
        {
          "internalType": "bytes32",
          "name": "_vouchID",
          "type": "bytes32"
        }
      ],
      "name": "getVouch",
      "outputs": [
        {
          "internalType": "string",
          "name": "",
          "type": "string"
        }
      ],
      "stateMutability": "view",
      "type": "function"
    },
    {
      "inputs": [
        {
          "internalType": "bytes32",
          "name": "vouchId",
          "type": "bytes32"
        }
      ],
      "name": "lastUpdated",
      "outputs": [
        {
          "internalType": "uint256",
          "name": "",
          "type": "uint256"
        }
      ],
      "stateMutability": "view",
      "type": "function"
    },
    {
      "inputs": [
        {
          "internalType": "uint256",
          "name": "month",
          "type": "uint256"
        }
      ],
      "name": "monthStringShort",
      "outputs": [
        {
          "internalType": "string",
          "name": "",
          "type": "string"
        }
      ],
      "stateMutability": "pure",
      "type": "function"
    },
    {
      "inputs": [],
      "name": "name",
      "outputs": [
        {
          "internalType": "string",
          "name": "",
          "type": "string"
        }
      ],
      "stateMutability": "view",
      "type": "function"
    },
    {
      "inputs": [
        {
          "internalType": "uint256",
          "name": "id",
          "type": "uint256"
        }
      ],
      "name": "ownerOf",
      "outputs": [
        {
          "internalType": "address",
          "name": "owner",
          "type": "address"
        }
      ],
      "stateMutability": "view",
      "type": "function"
    },
    {
      "inputs": [
        {
          "internalType": "string",
          "name": "barcode",
          "type": "string"
        }
      ],
      "name": "processAllUnvouched",
      "outputs": [],
      "stateMutability": "nonpayable",
      "type": "function"
    },
    {
      "inputs": [
        {
          "internalType": "string",
          "name": "barcode",
          "type": "string"
        }
      ],
      "name": "processUnvouched",
      "outputs": [],
      "stateMutability": "nonpayable",
      "type": "function"
    },
    {
      "inputs": [
        {
          "internalType": "string",
          "name": "barcode",
          "type": "string"
        }
      ],
      "name": "register",
      "outputs": [],
      "stateMutability": "nonpayable",
      "type": "function"
    },
    {
      "inputs": [
        {
          "internalType": "string",
          "name": "_name",
          "type": "string"
        }
      ],
      "name": "removeDocument",
      "outputs": [],
      "stateMutability": "nonpayable",
      "type": "function"
    },
    {
      "inputs": [
        {
          "internalType": "bytes32",
          "name": "vouchId",
          "type": "bytes32"
        }
      ],
      "name": "revoke",
      "outputs": [
        {
          "internalType": "bool",
          "name": "success",
          "type": "bool"
        }
      ],
      "stateMutability": "nonpayable",
      "type": "function"
    },
    {
      "inputs": [
        {
          "internalType": "bytes32",
          "name": "vouchId",
          "type": "bytes32"
        }
      ],
      "name": "revoked",
      "outputs": [
        {
          "internalType": "uint256",
          "name": "",
          "type": "uint256"
        }
      ],
      "stateMutability": "view",
      "type": "function"
    },
    {
      "inputs": [
        {
          "internalType": "address",
          "name": "from",
          "type": "address"
        },
        {
          "internalType": "address",
          "name": "to",
          "type": "address"
        },
        {
          "internalType": "uint256",
          "name": "id",
          "type": "uint256"
        }
      ],
      "name": "safeTransferFrom",
      "outputs": [],
      "stateMutability": "nonpayable",
      "type": "function"
    },
    {
      "inputs": [
        {
          "internalType": "address",
          "name": "from",
          "type": "address"
        },
        {
          "internalType": "address",
          "name": "to",
          "type": "address"
        },
        {
          "internalType": "uint256",
          "name": "id",
          "type": "uint256"
        },
        {
          "internalType": "bytes",
          "name": "data",
          "type": "bytes"
        }
      ],
      "name": "safeTransferFrom",
      "outputs": [],
      "stateMutability": "nonpayable",
      "type": "function"
    },
    {
      "inputs": [
        {
          "internalType": "address",
          "name": "operator",
          "type": "address"
        },
        {
          "internalType": "bool",
          "name": "approved",
          "type": "bool"
        }
      ],
      "name": "setApprovalForAll",
      "outputs": [],
      "stateMutability": "nonpayable",
      "type": "function"
    },
    {
      "inputs": [
        {
          "internalType": "string",
          "name": "_name",
          "type": "string"
        },
        {
          "internalType": "string",
          "name": "_data",
          "type": "string"
        }
      ],
      "name": "setDocument",
      "outputs": [],
      "stateMutability": "nonpayable",
      "type": "function"
    },
    {
      "inputs": [
        {
          "internalType": "string[]",
          "name": "_name",
          "type": "string[]"
        },
        {
          "internalType": "string[]",
          "name": "_data",
          "type": "string[]"
        }
      ],
      "name": "setDocuments",
      "outputs": [],
      "stateMutability": "nonpayable",
      "type": "function"
    },
    {
      "inputs": [
        {
          "internalType": "bytes4",
          "name": "interfaceId",
          "type": "bytes4"
        }
      ],
      "name": "supportsInterface",
      "outputs": [
        {
          "internalType": "bool",
          "name": "",
          "type": "bool"
        }
      ],
      "stateMutability": "view",
      "type": "function"
    },
    {
      "inputs": [],
      "name": "symbol",
      "outputs": [
        {
          "internalType": "string",
          "name": "",
          "type": "string"
        }
      ],
      "stateMutability": "view",
      "type": "function"
    },
    {
      "inputs": [
        {
          "internalType": "uint256",
          "name": "timestamp",
          "type": "uint256"
        }
      ],
      "name": "timestampToDate",
      "outputs": [
        {
          "internalType": "uint256",
          "name": "year",
          "type": "uint256"
        },
        {
          "internalType": "uint256",
          "name": "month",
          "type": "uint256"
        },
        {
          "internalType": "uint256",
          "name": "day",
          "type": "uint256"
        }
      ],
      "stateMutability": "pure",
      "type": "function"
    },
    {
      "inputs": [
        {
          "internalType": "uint256",
          "name": "timestamp",
          "type": "uint256"
        }
      ],
      "name": "timestampToString",
      "outputs": [
        {
          "internalType": "string",
          "name": "",
          "type": "string"
        }
      ],
      "stateMutability": "pure",
      "type": "function"
    },
    {
      "inputs": [],
      "name": "tokenIds",
      "outputs": [
        {
          "internalType": "uint256",
          "name": "",
          "type": "uint256"
        }
      ],
      "stateMutability": "view",
      "type": "function"
    },
    {
      "inputs": [
        {
          "internalType": "uint256",
          "name": "",
          "type": "uint256"
        }
      ],
      "name": "tokenInfo",
      "outputs": [
        {
          "internalType": "bytes32",
          "name": "",
          "type": "bytes32"
        }
      ],
      "stateMutability": "view",
      "type": "function"
    },
    {
      "inputs": [
        {
          "internalType": "uint256",
          "name": "id",
          "type": "uint256"
        }
      ],
      "name": "tokenURI",
      "outputs": [
        {
          "internalType": "string",
          "name": "",
          "type": "string"
        }
      ],
      "stateMutability": "view",
      "type": "function"
    },
    {
      "inputs": [
        {
          "internalType": "address",
          "name": "from",
          "type": "address"
        },
        {
          "internalType": "address",
          "name": "to",
          "type": "address"
        },
        {
          "internalType": "uint256",
          "name": "id",
          "type": "uint256"
        }
      ],
      "name": "transferFrom",
      "outputs": [],
      "stateMutability": "nonpayable",
      "type": "function"
    },
    {
      "inputs": [
        {
          "internalType": "string",
          "name": "barcode",
          "type": "string"
        }
      ],
      "name": "unregister",
      "outputs": [],
      "stateMutability": "nonpayable",
      "type": "function"
    },
    {
      "inputs": [
        {
          "internalType": "string",
          "name": "",
          "type": "string"
        },
        {
          "internalType": "uint256",
          "name": "",
          "type": "uint256"
        }
      ],
      "name": "unvouched",
      "outputs": [
        {
          "internalType": "address",
          "name": "sender",
          "type": "address"
        },
        {
          "internalType": "string",
          "name": "message",
          "type": "string"
        }
      ],
      "stateMutability": "view",
      "type": "function"
    },
    {
      "inputs": [
        {
          "internalType": "string",
          "name": "barcode",
          "type": "string"
        }
      ],
      "name": "unvouchedCount",
      "outputs": [
        {
          "internalType": "uint256",
          "name": "",
          "type": "uint256"
        }
      ],
      "stateMutability": "view",
      "type": "function"
    },
    {
      "inputs": [
        {
          "internalType": "address",
          "name": "",
          "type": "address"
        }
      ],
      "name": "userBarcode",
      "outputs": [
        {
          "internalType": "string",
          "name": "",
          "type": "string"
        }
      ],
      "stateMutability": "view",
      "type": "function"
    },
    {
      "inputs": [
        {
          "internalType": "address",
          "name": "",
          "type": "address"
        },
        {
          "internalType": "uint256",
          "name": "",
          "type": "uint256"
        }
      ],
      "name": "userInfo",
      "outputs": [
        {
          "internalType": "bytes32",
          "name": "",
          "type": "bytes32"
        }
      ],
      "stateMutability": "view",
      "type": "function"
    },
    {
      "inputs": [
        {
          "internalType": "string",
          "name": "barcode",
          "type": "string"
        }
      ],
      "name": "verify",
      "outputs": [
        {
          "internalType": "uint256",
          "name": "",
          "type": "uint256"
        }
      ],
      "stateMutability": "view",
      "type": "function"
    },
    {
      "inputs": [
        {
          "internalType": "bytes32",
          "name": "hash",
          "type": "bytes32"
        },
        {
          "internalType": "bytes",
          "name": "sig",
          "type": "bytes"
        }
      ],
      "name": "verifyVouchSig",
      "outputs": [
        {
          "internalType": "bool",
          "name": "success",
          "type": "bool"
        }
      ],
      "stateMutability": "pure",
      "type": "function"
    },
    {
      "inputs": [
        {
          "internalType": "string",
          "name": "barcode",
          "type": "string"
        },
        {
          "internalType": "string",
          "name": "message",
          "type": "string"
        }
      ],
      "name": "vouch",
      "outputs": [
        {
          "internalType": "bool",
          "name": "success",
          "type": "bool"
        }
      ],
      "stateMutability": "nonpayable",
      "type": "function"
    },
    {
      "inputs": [
        {
          "internalType": "address",
          "name": "",
          "type": "address"
        }
      ],
      "name": "vouchCount",
      "outputs": [
        {
          "internalType": "uint256",
          "name": "",
          "type": "uint256"
        }
      ],
      "stateMutability": "view",
      "type": "function"
    },
    {
      "inputs": [
        {
          "internalType": "bytes32",
          "name": "",
          "type": "bytes32"
        }
      ],
      "name": "vouchInfo",
      "outputs": [
        {
          "internalType": "address",
          "name": "sender",
          "type": "address"
        },
        {
          "internalType": "uint48",
          "name": "lastUpdateTime",
          "type": "uint48"
        },
        {
          "internalType": "uint48",
          "name": "revokedTime",
          "type": "uint48"
        }
      ],
      "stateMutability": "view",
      "type": "function"
    },
    {
      "inputs": [
        {
          "internalType": "bytes32",
          "name": "",
          "type": "bytes32"
        }
      ],
      "name": "vouchMsg",
      "outputs": [
        {
          "internalType": "string",
          "name": "",
          "type": "string"
        }
      ],
      "stateMutability": "view",
      "type": "function"
    },
    {
      "inputs": [
        {
          "internalType": "bytes32",
          "name": "vouchId",
          "type": "bytes32"
        }
      ],
      "name": "vouchSender",
      "outputs": [
        {
          "internalType": "address",
          "name": "",
          "type": "address"
        }
      ],
      "stateMutability": "view",
      "type": "function"
    },
    {
      "inputs": [
        {
          "internalType": "bytes32",
          "name": "",
          "type": "bytes32"
        }
      ],
      "name": "vouchToken",
      "outputs": [
        {
          "internalType": "uint256",
          "name": "",
          "type": "uint256"
        }
      ],
      "stateMutability": "view",
      "type": "function"
    }
  ],
  "bytecode": {
    "object": "0x60806040523480156200001157600080fd5b506040518060400160405280600e81526020016d5465737420426f6c69766172657360901b81525060405180604001604052806005815260200164564942455360d81b815250816003908162000068919062000125565b50600462000077828262000125565b505050620001f1565b634e487b7160e01b600052604160045260246000fd5b600181811c90821680620000ab57607f821691505b602082108103620000cc57634e487b7160e01b600052602260045260246000fd5b50919050565b601f8211156200012057600081815260208120601f850160051c81016020861015620000fb5750805b601f850160051c820191505b818110156200011c5782815560010162000107565b5050505b505050565b81516001600160401b0381111562000141576200014162000080565b620001598162000152845462000096565b84620000d2565b602080601f831160018114620001915760008415620001785750858301515b600019600386901b1c1916600185901b1785556200011c565b600085815260208120601f198616915b82811015620001c257888601518255948401946001909101908401620001a1565b5085821015620001e15787850151600019600388901b60f8161c191681555b5050505050600190811b01905550565b613fc480620002016000396000f3fe608060405234801561001057600080fd5b50600436106103835760003560e01c806379032fc8116101de578063bb9c6c3e1161010f578063cc33c875116100ad578063f2c298be1161007c578063f2c298be146108c6578063f6bb93ec146108d9578063f94e925d14610902578063fcfdd1191461092257600080fd5b8063cc33c87514610853578063d4acaf6c14610873578063dde51f6d14610886578063de5101af1461089857600080fd5b8063c87b56dd116100e9578063c87b56dd146107d9578063c92bce87146107ec578063caac4115146107ff578063cbf3e1321461081f57600080fd5b8063bb9c6c3e146107a0578063c005e554146107b3578063c6b547e6146107c657600080fd5b80639fa5f50b1161017c578063b451a93a11610156578063b451a93a14610754578063b75c7dc614610767578063b7d168e61461077a578063b88d4fde1461078d57600080fd5b80639fa5f50b1461071e578063a22cb46514610733578063b114ad9c1461074157600080fd5b80638cf2f9b5116101b85780638cf2f9b5146106dd57806392b4c81b146106f057806395d89b41146107035780639c64d0ae1461070b57600080fd5b806379032fc81461069657806379898ebb146106a95780637ccb6a64146106bc57600080fd5b80632a97e18c116102b857806353385cac116102565780636598a1ae116102305780636598a1ae1461064c5780636e2ce3b01461065f57806370a082311461067a578063714cff561461068d57600080fd5b806353385cac146105fa578063588a93881461060e5780636352211e1461062157600080fd5b8063328a93e811610292578063328a93e8146105a85780633d09ea55146105d75780633d1c2273146105df57806342842e0e146105e757600080fd5b80632a97e18c14610561578063304d6e2d1461058257806331e1f5f71461059557600080fd5b806317b7c82d1161032557806321ce919d116102ff57806321ce919d146104e357806323b872dd146104f65780632566080a1461050457806328da670a1461053357600080fd5b806317b7c82d1461044b5780631bdddb3b1461045e5780631d09cb501461047157600080fd5b806306fdde031161036157806306fdde0314610400578063095ea7b3146104155780630f4c16321461042557806313aadd331461043857600080fd5b806301ffc9a714610388578063047a038f146103b0578063060eb2f5146103d1575b600080fd5b61039b610396366004612bc1565b610949565b60405190151581526020015b60405180910390f35b6103c36103be366004612cd5565b61099b565b6040519081526020016103a7565b6103c36103df366004612d32565b600090815260076020526040902054600160a01b900465ffffffffffff1690565b6104086109f5565b6040516103a79190612d9b565b610423610383366004612dae565b005b610408610433366004612d32565b610a83565b610408610446366004612dd8565b610c6d565b610408610459366004612df3565b610c86565b61040861046c366004612e39565b610cba565b6104b561047f366004612d32565b6007602052600090815260409020546001600160a01b0381169065ffffffffffff600160a01b8204811691600160d01b90041683565b604080516001600160a01b03909416845265ffffffffffff92831660208501529116908201526060016103a7565b6103c36104f1366004612dae565b610de7565b610423610383366004612ecf565b6104086040518060400160405280601081526020016f5a757a616c7520426f6c69766172657360801b81525081565b61039b610541366004612f0b565b601060209081526000928352604080842090915290825290205460ff1681565b61057461056f366004612f3e565b610e1d565b6040516103a7929190612f82565b610408610590366004612d32565b610efc565b6104086105a3366004612d32565b61105c565b6103c36105b6366004612d32565b600090815260076020526040902054600160d01b900465ffffffffffff1690565b610408611075565b6002546103c3565b6104236105f5366004612ecf565b611091565b610408610608366004612d32565b50606090565b61040861061c366004612d32565b611099565b61063461062f366004612d32565b6110f5565b6040516001600160a01b0390911681526020016103a7565b61042361065a366004612fe7565b61114c565b61066d610608366004612dd8565b6040516103a79190613028565b6103c3610688366004612dd8565b611231565b6103c3600a5481565b6106346106a436600461306c565b611294565b6104236106b7366004612fe7565b6112c5565b6106cf6106ca366004612fe7565b6114cf565b6040516103a79291906130a0565b61039b6106eb3660046130c2565b6115c6565b6104086106fe36600461310d565b61162b565b61040861167b565b6104236107193660046131e5565b611688565b610726611694565b6040516103a79190613250565b6104236103833660046132b2565b6103c361074f366004612fe7565b61176d565b610423610762366004612fe7565b611897565b61039b610775366004612d32565b611a3f565b6104086107883660046132ee565b611a4b565b61042361079b36600461339a565b611a87565b6103c36107ae36600461306c565b611a96565b61039b6107c1366004613408565b611af0565b6104086107d4366004612d32565b611ca7565b6104086107e7366004612d32565b611d65565b6104236107fa3660046134a7565b611e80565b6103c361080d366004612dd8565b600f6020526000908152604090205481565b61063461082d36600461306c565b8051602081830181018051600e825292820191909301209152546001600160a01b031681565b6103c3610861366004612d32565b600c6020526000908152604090205481565b610634610881366004613506565b611ef6565b610423610894366004612fe7565b5050565b6108ab6108a6366004612d32565b611f31565b604080519384526020840192909252908201526060016103a7565b6104236108d4366004612fe7565b611f4c565b6106346108e7366004612d32565b6000908152600760205260409020546001600160a01b031690565b6103c3610910366004612d32565b600b6020526000908152604090205481565b6103c37f2c74dac1fd3ae13388f7a55930dfea50b1d0adc16bacffd74160c1dd2170b28281565b60006301ffc9a760e01b6001600160e01b03198316148061097a57506380ac58cd60e01b6001600160e01b03198316145b806109955750635b5e139f60e01b6001600160e01b03198316145b92915050565b6000307f2c74dac1fd3ae13388f7a55930dfea50b1d0adc16bacffd74160c1dd2170b2828585856040516020016109d6959493929190613556565b6040516020818303038152906040528051906020012090509392505050565b60038054610a029061359c565b80601f0160208091040260200160405190810160405280929190818152602001828054610a2e9061359c565b8015610a7b5780601f10610a5057610100808354040283529160200191610a7b565b820191906000526020600020905b815481529060010190602001808311610a5e57829003601f168201915b505050505081565b606081600103610aac5750506040805180820190915260038152622530b760e91b602082015290565b81600203610ad35750506040805180820190915260038152622332b160e91b602082015290565b81600303610afa57505060408051808201909152600381526226b0b960e91b602082015290565b81600403610b2157505060408051808201909152600381526220b83960e91b602082015290565b81600503610b485750506040805180820190915260038152624d617960e81b602082015290565b81600603610b6f575050604080518082019091526003815262253ab760e91b602082015290565b81600703610b96575050604080518082019091526003815262129d5b60ea1b602082015290565b81600803610bbd57505060408051808201909152600381526241756760e81b602082015290565b81600903610be457505060408051808201909152600381526205365760ec1b602082015290565b81600a03610c0b57505060408051808201909152600381526213d8dd60ea1b602082015290565b81600b03610c325750506040805180820190915260038152622737bb60e91b602082015290565b81600c03610c5957505060408051808201909152600381526244656360e81b602082015290565b505060408051602081019091526000815290565b600d6020526000908152604090208054610a029061359c565b606081610c9284612029565b604051602001610ca39291906135d6565b604051602081830303815290604052905092915050565b60606000610cc788612029565b604051602001610cd7919061367b565b60405160208183030381529060405290506000610d00610cfb8a8a8a8a8a8a612129565b6121d1565b604051602001610d1091906136aa565b60405160208183030381529060405290506000604051602001610dad907f54686973204e465420726570726573656e74732061207369676e6564206d657381527f736167652066726f6d20612073656e64657220746f207468697320616464726560208201527f73732e2054686973204e46542063616e6e6f74206265207472616e7366657265604082015261321760f11b606082015260620190565b60405160208183030381529060405290506000610dca8b88610c86565b9050610dd884838584611a4b565b9b9a5050505050505050505050565b60096020528160005260406000208181548110610e0357600080fd5b90600052602060002001600091509150505481565b505050565b81516020818401810180516011825292820191850191909120919052805482908110610e4857600080fd5b6000918252602090912060029091020180546001820180546001600160a01b039092169450919250610e799061359c565b80601f0160208091040260200160405190810160405280929190818152602001828054610ea59061359c565b8015610ef25780601f10610ec757610100808354040283529160200191610ef2565b820191906000526020600020905b815481529060010190602001808311610ed557829003601f168201915b5050505050905082565b606081600103610f255750506040805180820190915260038152620c5cdd60ea1b602082015290565b81600203610f4c5750506040805180820190915260038152620c9b9960ea1b602082015290565b81600303610f735750506040805180820190915260038152620cdc9960ea1b602082015290565b81601503610f9b5750506040805180820190915260048152630c8c5cdd60e21b602082015290565b81601603610fc35750506040805180820190915260048152630c8c9b9960e21b602082015290565b81601703610feb5750506040805180820190915260048152630c8cdc9960e21b602082015290565b81601f036110135750506040805180820190915260048152630ccc5cdd60e21b602082015290565b601f821080156110235750600082115b156110575761103182612029565b60405160200161104191906136ef565b6040516020818303038152906040529050919050565b919050565b60086020526000908152604090208054610a029061359c565b6040518060600160405280602c8152602001613f63602c913981565b610e18600080fd5b606060008060006110a985612337565b9250925092506110b881610efc565b6110c183610a83565b6110ca85612029565b6040516020016110dc93929190613715565b6040516020818303038152906040529350505050919050565b6000818152600560205260409020546001600160a01b0316806110575760405162461bcd60e51b815260206004820152600a6024820152691393d517d3525395115160b21b60448201526064015b60405180910390fd5b336001600160a01b0316600e838360405161116892919061376f565b908152604051908190036020019020546001600160a01b0316146111ce5760405162461bcd60e51b815260206004820152601960248201527f426172636f6465206973206e6f742072656769737465726564000000000000006044820152606401611143565b6000600e83836040516111e292919061376f565b908152604080516020928190038301812080546001600160a01b0319166001600160a01b03959095169490941790935581830181526000808452338152600d909252902090610e1890826137c5565b60006001600160a01b0382166112785760405162461bcd60e51b815260206004820152600c60248201526b5a45524f5f4144445245535360a01b6044820152606401611143565b506001600160a01b031660009081526006602052604090205490565b6000600e826040516112a69190613884565b908152604051908190036020019020546001600160a01b031692915050565b6000601183836040516112d992919061376f565b9081526020016040518091039020805480602002602001604051908101604052809291908181526020016000905b828210156113e0576000848152602090819020604080518082019091526002850290910180546001600160a01b03168252600181018054929391929184019161134f9061359c565b80601f016020809104026020016040519081016040528092919081815260200182805461137b9061359c565b80156113c85780601f1061139d576101008083540402835291602001916113c8565b820191906000526020600020905b8154815290600101906020018083116113ab57829003601f168201915b50505050508152505081526020019060010190611307565b50505050905060008151116113f457600080fd5b6000816001835161140591906138b6565b81518110611415576114156138c9565b602002602001015190506011848460405161143192919061376f565b908152602001604051809103902080548061144e5761144e6138df565b60008281526020812060026000199093019283020180546001600160a01b03191681559061147f6001830182612b1c565b505090556114c98160000151600e868660405161149d92919061376f565b908152602001604051809103902060009054906101000a90046001600160a01b03168360200151612350565b50505050565b606060008084846040516114e492919061376f565b90815260200160405180910390206001016000858560405161150792919061376f565b9081526040519081900360200190205481546001600160401b036401000000009092049190911690829061153a9061359c565b80601f01602080910402602001604051908101604052809291908181526020018280546115669061359c565b80156115b35780601f10611588576101008083540402835291602001916115b3565b820191906000526020600020905b81548152906001019060200180831161159657829003601f168201915b50505050509150915091505b9250929050565b60006116088484848080601f016020809104026020016040519081016040528093929190818152602001838380828437600092019190915250611ef692505050565b6001600160a01b031660000361162057506000611624565b5060015b9392505050565b606061166b826000015183602001518460400151856060015160405160200161165794939291906138f5565b6040516020818303038152906040526121d1565b60405160200161104191906139ca565b60048054610a029061359c565b6114c98484848461243f565b60606002805480602002602001604051908101604052809291908181526020016000905b828210156117645783829060005260206000200180546116d79061359c565b80601f01602080910402602001604051908101604052809291908181526020018280546117039061359c565b80156117505780601f1061172557610100808354040283529160200191611750565b820191906000526020600020905b81548152906001019060200180831161173357829003601f168201915b5050505050815260200190600101906116b8565b50505050905090565b6000806011848460405161178292919061376f565b9081526020016040518091039020805480602002602001604051908101604052809291908181526020016000905b82821015611889576000848152602090819020604080518082019091526002850290910180546001600160a01b0316825260018101805492939192918401916117f89061359c565b80601f01602080910402602001604051908101604052809291908181526020018280546118249061359c565b80156118715780601f1061184657610100808354040283529160200191611871565b820191906000526020600020905b81548152906001019060200180831161185457829003601f168201915b505050505081525050815260200190600101906117b0565b505091519695505050505050565b6000601183836040516118ab92919061376f565b9081526020016040518091039020805480602002602001604051908101604052809291908181526020016000905b828210156119b2576000848152602090819020604080518082019091526002850290910180546001600160a01b0316825260018101805492939192918401916119219061359c565b80601f016020809104026020016040519081016040528092919081815260200182805461194d9061359c565b801561199a5780601f1061196f5761010080835404028352916020019161199a565b820191906000526020600020905b81548152906001019060200180831161197d57829003601f168201915b505050505081525050815260200190600101906118d9565b50505050905060008151116119c657600080fd5b60005b8151811015611a135760008282815181106119e6576119e66138c9565b60200260200101519050611a0a8160000151600e878760405161149d92919061376f565b506001016119c9565b60118484604051611a2592919061376f565b908152602001604051809103902060006114c99190612b59565b60006109958233612658565b606060006040518060800160405280878152602001868152602001858152602001848152509050611a7b8161162b565b9150505b949350505050565b611a8f600080fd5b5050505050565b600080600e83604051611aa99190613884565b908152604051908190036020019020546001600160a01b0316905080611ad25750600092915050565b6001600160a01b03166000908152600f602052604090205492915050565b6000803390506000600e86604051611b089190613884565b908152604051908190036020019020546001600160a01b0390811691508216819003611b805760405162461bcd60e51b815260206004820152602160248201527f566f75636820666f7220796f757273656c66206973206e6f7420616c6c6f77656044820152601960fa1b6064820152608401611143565b6001600160a01b038116611c5a57601186604051611b9e9190613884565b90815260200160405180910390206040518060400160405280846001600160a01b0316815260200187878080601f0160208091040260200160405190810160405280939291908181526020018383808284376000920182905250939094525050835460018082018655948252602091829020845160029092020180546001600160a01b0319166001600160a01b0390921691909117815590830151929390929083019150611c4c90826137c5565b505050600192505050611624565b611c9b828287878080601f01602080910402602001604051908101604052809392919081815260200183838082843760009201919091525061235092505050565b50600195945050505050565b6002546060908210611cb857600080fd5b60028281548110611ccb57611ccb6138c9565b906000526020600020018054611ce09061359c565b80601f0160208091040260200160405190810160405280929190818152602001828054611d0c9061359c565b8015611d595780601f10611d2e57610100808354040283529160200191611d59565b820191906000526020600020905b815481529060010190602001808311611d3c57829003601f168201915b50505050509050919050565b6000818152600c602090815260408083205483526007909152902054606090610995908390600160a01b810465ffffffffffff16906001600160a01b0316611dac836110f5565b6040518060600160405280602c8152602001613f63602c9139600d6000611dd28a6110f5565b6001600160a01b03166001600160a01b031681526020019081526020016000208054611dfd9061359c565b80601f0160208091040260200160405190810160405280929190818152602001828054611e299061359c565b8015611e765780601f10611e4b57610100808354040283529160200191611e76565b820191906000526020600020905b815481529060010190602001808311611e5957829003601f168201915b5050505050610cba565b8260005b81811015611eee57611edc868683818110611ea157611ea16138c9565b9050602002810190611eb39190613a0f565b868685818110611ec557611ec56138c9565b9050602002810190611ed79190613a0f565b61243f565b80611ee681613a55565b915050611e84565b505050505050565b60008151604103611f295760208201516040830151606084015160001a611f1f868285856126ea565b9350505050610995565b506000610995565b6000806000611f3f84612337565b9196909550909350915050565b60006001600160a01b0316600e8383604051611f6992919061376f565b908152604051908190036020019020546001600160a01b031614611fcf5760405162461bcd60e51b815260206004820152601f60248201527f43616e6e6f742072656769737465722073616d652062696c6c207477696365006044820152606401611143565b33600e8383604051611fe292919061376f565b908152604080516020928190038301902080546001600160a01b0319166001600160a01b039490941693909317909255336000908152600d90915220610e18828483613a6e565b6060816000036120505750506040805180820190915260018152600360fc1b602082015290565b8160005b811561207a578061206481613a55565b91506120739050600a83613b43565b9150612054565b6000816001600160401b0381111561209457612094612c02565b6040519080825280601f01601f1916602001820160405280156120be576020820181803683370190505b5090505b8415611a7f576120d36001836138b6565b91506120e0600a86613b57565b6120eb906030613b6b565b60f81b818381518110612100576121006138c9565b60200101906001600160f81b031916908160001a905350612122600a86613b43565b94506120c2565b60606040518061014001604052806101028152602001613e61610102913990508061215387611099565b604051602001612164929190613b7e565b60405160208183030381529060405290508083604051602001612188929190613be6565b604051602081830303815290604052905080826121a489612029565b6040516020016121b693929190613c89565b60405160208183030381529060405290509695505050505050565b606081516000036121f057505060408051602081019091526000815290565b6000604051806060016040528060408152602001613e21604091399050600060038451600261221f9190613b6b565b6122299190613b43565b612234906004613d2d565b90506000612243826020613b6b565b6001600160401b0381111561225a5761225a612c02565b6040519080825280601f01601f191660200182016040528015612284576020820181803683370190505b509050818152600183018586518101602084015b818310156122f25760039283018051603f601282901c811687015160f890811b8552600c83901c8216880151811b6001860152600683901c8216880151811b60028601529116860151901b93820193909352600401612298565b60038951066001811461230c576002811461231d57612329565b613d3d60f01b600119830152612329565b603d60f81b6000198301525b509398975050505050505050565b60008080611f3f61234b6201518086613b43565b61279e565b6001600160a01b0380841660009081526010602090815260408083209386168352929052205460ff166123c8576001600160a01b0380841660009081526010602090815260408083209386168352928152828220805460ff19166001179055600f90529081208054916123c283613a55565b91905055505b60006123d584848461099b565b90506123e2838386612912565b6000818152600b602052604081205490819003611a8f57600a805490600061240983613a55565b909155506000818152600c60205260409020839055905061242a8482612943565b6000918252600b602052604090912055505050565b8261244957600080fd5b8061245357600080fd5b60006001600160401b03166000858560405161247092919061376f565b908152604051908190036020019020546001600160401b03640100000000909104160361251557600280546001810182556000919091527f405787fa12a823e0f2b7631cc41b3ba8828b3321ca811111fa75cd3aa3bb5ace016124d4848683613a6e565b506002546040516000906124eb908790879061376f565b908152604051908190036020019020805463ffffffff9290921663ffffffff199092169190911790555b60405180606001604052806000868660405161253292919061376f565b90815260408051602092819003830190205463ffffffff168352426001600160401b0316838301528051601f8601839004830281018301825285815292019190859085908190840183828082843760009201829052509390945250506040519091506125a1908790879061376f565b9081526040805191829003602090810190922083518154938501516001600160401b0316640100000000026bffffffffffffffffffffffff1990941663ffffffff9091161792909217825582015160018201906125fe90826137c5565b505060405161261191508590859061376f565b60405180910390207fbaa206e5ea800eb88bce099f453fee53295b793b9d5d1cfc4ce4b6db06a34f53838360405161264a929190613d44565b60405180910390a250505050565b6000828152600760205260408120546001600160a01b038381169116146126b85760405162461bcd60e51b81526020600482015260146024820152730a6cadcc8cae440c8d2c840dcdee840ecdeeac6d60631b6044820152606401611143565b5050600090815260076020526040902080546001600160d01b0316600160d01b4265ffffffffffff1602179055600190565b60007f7fffffffffffffffffffffffffffffff5d576e7357a4501ddfe92f46681b20a082111561271c57506000611a7f565b6040805160008082526020820180845288905260ff871692820192909252606081018590526080810184905260019060a0016020604051602081039080840390855afa158015612770573d6000803e3d6000fd5b5050604051601f1901519150506001600160a01b038116612795576000915050611a7f565b95945050505050565b60008080838162253d8c6127b58362010bd9613d73565b6127bf9190613d73565b9050600062023ab16127d2836004613d9b565b6127dc9190613dcb565b905060046127ed8262023ab1613d9b565b6127f8906003613d73565b6128029190613dcb565b61280c9083613df9565b9150600062164b0961281f846001613d73565b61282b90610fa0613d9b565b6128359190613dcb565b90506004612845826105b5613d9b565b61284f9190613dcb565b6128599084613df9565b61286490601f613d73565b9250600061098f612876856050613d9b565b6128809190613dcb565b9050600060506128928361098f613d9b565b61289c9190613dcb565b6128a69086613df9565b90506128b3600b83613dcb565b94506128c085600c613d9b565b6128cb836002613d73565b6128d59190613df9565b915084836128e4603187613df9565b6128ef906064613d9b565b6128f99190613d73565b6129039190613d73565b9a919950975095505050505050565b600061291f82858561099b565b905061292b8183612a4e565b6000818152600860205260409020611a8f84826137c5565b6001600160a01b03821661298d5760405162461bcd60e51b81526020600482015260116024820152701253959053125117d49150d25412515395607a1b6044820152606401611143565b6000818152600560205260409020546001600160a01b0316156129e35760405162461bcd60e51b815260206004820152600e60248201526d1053149150511657d3525395115160921b6044820152606401611143565b6001600160a01b038216600081815260066020908152604080832080546001019055848352600590915280822080546001600160a01b0319168417905551839291907fddf252ad1be2c89b69c2b068fc378daa952ba7f163c4a11628f55a4df523b3ef908290a45050565b600082815260076020526040812054600160a01b900465ffffffffffff169003612a9e576001600160a01b0381166000908152600960209081526040822080546001810182559083529120018290555b604080516060810182526001600160a01b03928316815265ffffffffffff4281166020808401918252600084860181815297815260079091529390932091518254935195518216600160d01b026001600160d01b0396909216600160a01b026001600160d01b03199094169416939093179190911792909216179055565b508054612b289061359c565b6000825580601f10612b38575050565b601f016020900490600052602060002090810190612b569190612b7a565b50565b5080546000825560020290600052602060002090810190612b569190612b93565b5b80821115612b8f5760008155600101612b7b565b5090565b80821115612b8f5780546001600160a01b03191681556000612bb86001830182612b1c565b50600201612b93565b600060208284031215612bd357600080fd5b81356001600160e01b03198116811461162457600080fd5b80356001600160a01b038116811461105757600080fd5b634e487b7160e01b600052604160045260246000fd5b604051608081016001600160401b0381118282101715612c3a57612c3a612c02565b60405290565b60006001600160401b0380841115612c5a57612c5a612c02565b604051601f8501601f19908116603f01168101908282118183101715612c8257612c82612c02565b81604052809350858152868686011115612c9b57600080fd5b858560208301376000602087830101525050509392505050565b600082601f830112612cc657600080fd5b61162483833560208501612c40565b600080600060608486031215612cea57600080fd5b612cf384612beb565b9250612d0160208501612beb565b915060408401356001600160401b03811115612d1c57600080fd5b612d2886828701612cb5565b9150509250925092565b600060208284031215612d4457600080fd5b5035919050565b60005b83811015612d66578181015183820152602001612d4e565b50506000910152565b60008151808452612d87816020860160208601612d4b565b601f01601f19169290920160200192915050565b6020815260006116246020830184612d6f565b60008060408385031215612dc157600080fd5b612dca83612beb565b946020939093013593505050565b600060208284031215612dea57600080fd5b61162482612beb565b60008060408385031215612e0657600080fd5b8235915060208301356001600160401b03811115612e2357600080fd5b612e2f85828601612cb5565b9150509250929050565b60008060008060008060c08789031215612e5257600080fd5b8635955060208701359450612e6960408801612beb565b9350612e7760608801612beb565b925060808701356001600160401b0380821115612e9357600080fd5b612e9f8a838b01612cb5565b935060a0890135915080821115612eb557600080fd5b50612ec289828a01612cb5565b9150509295509295509295565b600080600060608486031215612ee457600080fd5b612eed84612beb565b9250612efb60208501612beb565b9150604084013590509250925092565b60008060408385031215612f1e57600080fd5b612f2783612beb565b9150612f3560208401612beb565b90509250929050565b60008060408385031215612f5157600080fd5b82356001600160401b03811115612f6757600080fd5b612f7385828601612cb5565b95602094909401359450505050565b6001600160a01b0383168152604060208201819052600090611a7f90830184612d6f565b60008083601f840112612fb857600080fd5b5081356001600160401b03811115612fcf57600080fd5b6020830191508360208285010111156115bf57600080fd5b60008060208385031215612ffa57600080fd5b82356001600160401b0381111561301057600080fd5b61301c85828601612fa6565b90969095509350505050565b6020808252825182820181905260009190848201906040850190845b8181101561306057835183529284019291840191600101613044565b50909695505050505050565b60006020828403121561307e57600080fd5b81356001600160401b0381111561309457600080fd5b611a7f84828501612cb5565b6040815260006130b36040830185612d6f565b90508260208301529392505050565b6000806000604084860312156130d757600080fd5b8335925060208401356001600160401b038111156130f457600080fd5b61310086828701612fa6565b9497909650939450505050565b60006020828403121561311f57600080fd5b81356001600160401b038082111561313657600080fd5b908301906080828603121561314a57600080fd5b613152612c18565b82358281111561316157600080fd5b61316d87828601612cb5565b82525060208301358281111561318257600080fd5b61318e87828601612cb5565b6020830152506040830135828111156131a657600080fd5b6131b287828601612cb5565b6040830152506060830135828111156131ca57600080fd5b6131d687828601612cb5565b60608301525095945050505050565b600080600080604085870312156131fb57600080fd5b84356001600160401b038082111561321257600080fd5b61321e88838901612fa6565b9096509450602087013591508082111561323757600080fd5b5061324487828801612fa6565b95989497509550505050565b6000602080830181845280855180835260408601915060408160051b870101925083870160005b828110156132a557603f19888603018452613293858351612d6f565b94509285019290850190600101613277565b5092979650505050505050565b600080604083850312156132c557600080fd5b6132ce83612beb565b9150602083013580151581146132e357600080fd5b809150509250929050565b6000806000806080858703121561330457600080fd5b84356001600160401b038082111561331b57600080fd5b61332788838901612cb5565b9550602087013591508082111561333d57600080fd5b61334988838901612cb5565b9450604087013591508082111561335f57600080fd5b61336b88838901612cb5565b9350606087013591508082111561338157600080fd5b5061338e87828801612cb5565b91505092959194509250565b6000806000806000608086880312156133b257600080fd5b6133bb86612beb565b94506133c960208701612beb565b93506040860135925060608601356001600160401b038111156133eb57600080fd5b6133f788828901612fa6565b969995985093965092949392505050565b60008060006040848603121561341d57600080fd5b83356001600160401b038082111561343457600080fd5b61344087838801612cb5565b9450602086013591508082111561345657600080fd5b5061310086828701612fa6565b60008083601f84011261347557600080fd5b5081356001600160401b0381111561348c57600080fd5b6020830191508360208260051b85010111156115bf57600080fd5b600080600080604085870312156134bd57600080fd5b84356001600160401b03808211156134d457600080fd5b6134e088838901613463565b909650945060208701359150808211156134f957600080fd5b5061324487828801613463565b6000806040838503121561351957600080fd5b8235915060208301356001600160401b0381111561353657600080fd5b8301601f8101851361354757600080fd5b612e2f85823560208401612c40565b6001600160a01b0386811682526020820186905284811660408301528316606082015260a06080820181905260009061359190830184612d6f565b979650505050505050565b600181811c908216806135b057607f821691505b6020821081036135d057634e487b7160e01b600052602260045260246000fd5b50919050565b7f7b2274726169745f74797065223a22566f756368222c2276616c7565223a220081526000835161360e81601f850160208801612d4b565b62089f4b60ea1b601f918401918201527f7b2274726169745f74797065223a22566f756368204944222c2276616c7565226022820152601d60f91b60428201528351613661816043840160208801612d4b565b607d60f81b60439290910191820152604401949350505050565b66566f756368202360c81b81526000825161369d816007850160208701612d4b565b9190910160070192915050565b7f646174613a696d6167652f7376672b786d6c3b6261736536342c0000000000008152600082516136e281601a850160208701612d4b565b91909101601a0192915050565b60008251613701818460208701612d4b565b610e8d60f31b920191825250600201919050565b60008451613727818460208901612d4b565b8083019050600160fd1b8082528551613747816001850160208a01612d4b565b60019201918201528351613762816002840160208801612d4b565b0160020195945050505050565b8183823760009101908152919050565b601f821115610e1857600081815260208120601f850160051c810160208610156137a65750805b601f850160051c820191505b81811015611eee578281556001016137b2565b81516001600160401b038111156137de576137de612c02565b6137f2816137ec845461359c565b8461377f565b602080601f831160018114613827576000841561380f5750858301515b600019600386901b1c1916600185901b178555611eee565b600085815260208120601f198616915b8281101561385657888601518255948401946001909101908401613837565b50858210156138745787850151600019600388901b60f8161c191681555b5050505050600190811b01905550565b60008251613896818460208701612d4b565b9190910192915050565b634e487b7160e01b600052601160045260246000fd5b81810381811115610995576109956138a0565b634e487b7160e01b600052603260045260246000fd5b634e487b7160e01b600052603160045260246000fd5b683d913730b6b2911d1160b91b8152845160009061391a816009850160208a01612d4b565b71111610113232b9b1b934b83a34b7b7111d1160711b600991840191820152855161394c81601b840160208a01612d4b565b6c1116101134b6b0b3b2911d101160991b601b9290910191820152845161397a816028840160208901612d4b565b71222c202261747472696275746573223a205b60701b6028929091019182015283516139ad81603a840160208801612d4b565b615d7d60f01b603a9290910191820152603c019695505050505050565b7f646174613a6170706c69636174696f6e2f6a736f6e3b6261736536342c000000815260008251613a0281601d850160208701612d4b565b91909101601d0192915050565b6000808335601e19843603018112613a2657600080fd5b8301803591506001600160401b03821115613a4057600080fd5b6020019150368190038213156115bf57600080fd5b600060018201613a6757613a676138a0565b5060010190565b6001600160401b03831115613a8557613a85612c02565b613a9983613a93835461359c565b8361377f565b6000601f841160018114613acd5760008515613ab55750838201355b600019600387901b1c1916600186901b178355611a8f565b600083815260209020601f19861690835b82811015613afe5786850135825560209485019460019092019101613ade565b5086821015613b1b5760001960f88860031b161c19848701351681555b505060018560011b0183555050505050565b634e487b7160e01b600052601260045260246000fd5b600082613b5257613b52613b2d565b500490565b600082613b6657613b66613b2d565b500690565b80820180821115610995576109956138a0565b60008351613b90818460208801612d4b565b835190830190613ba4818360208801612d4b565b7f3c2f746578743e3c7465787420783d2232302220793d2238302220636c6173739101908152671e913130b9b2911f60c11b6020820152602801949350505050565b60008351613bf8818460208801612d4b565b835190830190613c0c818360208801612d4b565b7f3c2f746578743e3c7465787420783d2232302220793d223236352220636c617391019081527f733d2262617365223e66726f6d3a203c2f746578743e3c7465787420783d223260208201527f302220793d223239302220636c6173733d2262617365223e00000000000000006040820152605801949350505050565b60008451613c9b818460208901612d4b565b845190830190613caf818360208901612d4b565b8082019150507f3c2f746578743e3c7465787420783d223234302220793d223332302220636c61815271039b99e913130b9b2911f3b37bab1b41011960751b60208201528351613d06816032840160208801612d4b565b6c1e17ba32bc3a1f1e17b9bb339f60991b60329290910191820152603f0195945050505050565b8082028115828204841417610995576109956138a0565b60208152816020820152818360408301376000818301604090810191909152601f909201601f19160101919050565b8082018281126000831280158216821582161715613d9357613d936138a0565b505092915050565b80820260008212600160ff1b84141615613db757613db76138a0565b8181058314821517610995576109956138a0565b600082613dda57613dda613b2d565b600160ff1b821460001984141615613df457613df46138a0565b500590565b8181036000831280158383131683831282161715613e1957613e196138a0565b509291505056fe4142434445464748494a4b4c4d4e4f505152535455565758595a6162636465666768696a6b6c6d6e6f707172737475767778797a303132333435363738392b2f3c73766720786d6c6e733d22687474703a2f2f7777772e77332e6f72672f323030302f73766722207072657365727665417370656374526174696f3d22784d696e594d696e206d656574222076696577426f783d223020302033353020333530223e3c7374796c653e2e62617365207b2066696c6c3a20236666656566663b20666f6e742d66616d696c793a2073657269663b20666f6e742d73697a653a20313570783b207d3c2f7374796c653e3c726563742077696474683d223130302522206865696768743d2231303025222066696c6c3d222331393437336622202f3e3c7465787420783d223235302220793d2234302220636c6173733d2262617365223e4920766f756368207468697320706572736f6e2068616420676f6f64207669626573206174205a757a616c75a2646970667358221220f8ee667eeb41ff107164d7444e3cca2fda61e88e585acbc77ee585462455c58f64736f6c63430008110033",
    "linkReferences": {}
  },
  "methodIdentifiers": {
    "VOUCH_ID()": "fcfdd119",
    "VOUCH_MSG()": "3d09ea55",
    "VOUCH_NAME()": "2566080a",
    "approve(address,uint256)": "095ea7b3",
    "balanceOf(address)": "70a08231",
    "barcodes(string)": "cbf3e132",
    "constructTokenURI((string,string,string,string))": "92b4c81b",
    "dataURI(uint256,uint256,address,address,string,string)": "1bdddb3b",
    "dayOfMonthString(uint256)": "304d6e2d",
    "doesVouch(address,address)": "28da670a",
    "ecrecoverFromSig(bytes32,bytes)": "d4acaf6c",
    "generateAttributesList(uint256,string)": "17b7c82d",
    "generateVouchHash(address,address,string)": "047a038f",
    "genericDataURI(string,string,string,string)": "b7d168e6",
    "getAllDocuments()": "9fa5f50b",
    "getDocument(string)": "7ccb6a64",
    "getDocumentCount()": "3d1c2273",
    "getDocumentName(uint256)": "c6b547e6",
    "getUserFromVouch(string)": "79032fc8",
    "getUserVouches(address)": "6e2ce3b0",
    "getVouch(bytes32)": "53385cac",
    "lastUpdated(bytes32)": "060eb2f5",
    "monthStringShort(uint256)": "0f4c1632",
    "name()": "06fdde03",
    "ownerOf(uint256)": "6352211e",
    "processAllUnvouched(string)": "b451a93a",
    "processUnvouched(string)": "79898ebb",
    "register(string)": "f2c298be",
    "removeDocument(string)": "dde51f6d",
    "revoke(bytes32)": "b75c7dc6",
    "revoked(bytes32)": "328a93e8",
    "safeTransferFrom(address,address,uint256)": "42842e0e",
    "safeTransferFrom(address,address,uint256,bytes)": "b88d4fde",
    "setApprovalForAll(address,bool)": "a22cb465",
    "setDocument(string,string)": "9c64d0ae",
    "setDocuments(string[],string[])": "c92bce87",
    "supportsInterface(bytes4)": "01ffc9a7",
    "symbol()": "95d89b41",
    "timestampToDate(uint256)": "de5101af",
    "timestampToString(uint256)": "588a9388",
    "tokenIds()": "714cff56",
    "tokenInfo(uint256)": "cc33c875",
    "tokenURI(uint256)": "c87b56dd",
    "transferFrom(address,address,uint256)": "23b872dd",
    "unregister(string)": "6598a1ae",
    "unvouched(string,uint256)": "2a97e18c",
    "unvouchedCount(string)": "b114ad9c",
    "userBarcode(address)": "13aadd33",
    "userInfo(address,uint256)": "21ce919d",
    "verify(string)": "bb9c6c3e",
    "verifyVouchSig(bytes32,bytes)": "8cf2f9b5",
    "vouch(string,string)": "c005e554",
    "vouchCount(address)": "caac4115",
    "vouchInfo(bytes32)": "1d09cb50",
    "vouchMsg(bytes32)": "31e1f5f7",
    "vouchSender(bytes32)": "f6bb93ec",
    "vouchToken(bytes32)": "f94e925d"
  },
  "id": 0
}