{
  "abi": [
    {
      "inputs": [],
      "name": "VOUCH_ID",
      "outputs": [
        {
          "internalType": "bytes32",
          "name": "",
          "type": "bytes32"
        }
      ],
      "stateMutability": "view",
      "type": "function"
    },
    {
      "inputs": [
        {
          "internalType": "bytes32",
          "name": "hash",
          "type": "bytes32"
        },
        {
          "internalType": "bytes",
          "name": "sig",
          "type": "bytes"
        }
      ],
      "name": "ecrecoverFromSig",
      "outputs": [
        {
          "internalType": "address",
          "name": "recoveredAddress",
          "type": "address"
        }
      ],
      "stateMutability": "pure",
      "type": "function"
    },
    {
      "inputs": [
        {
          "internalType": "address",
          "name": "sender",
          "type": "address"
        },
        {
          "internalType": "address",
          "name": "recipient",
          "type": "address"
        },
        {
          "internalType": "string",
          "name": "message",
          "type": "string"
        }
      ],
      "name": "generateVouchHash",
      "outputs": [
        {
          "internalType": "bytes32",
          "name": "hash",
          "type": "bytes32"
        }
      ],
      "stateMutability": "view",
      "type": "function"
    },
    {
      "inputs": [
        {
          "internalType": "bytes32",
          "name": "vouchId",
          "type": "bytes32"
        }
      ],
      "name": "lastUpdated",
      "outputs": [
        {
          "internalType": "uint256",
          "name": "",
          "type": "uint256"
        }
      ],
      "stateMutability": "view",
      "type": "function"
    },
    {
      "inputs": [
        {
          "internalType": "bytes32",
          "name": "vouchId",
          "type": "bytes32"
        }
      ],
      "name": "revoke",
      "outputs": [
        {
          "internalType": "bool",
          "name": "success",
          "type": "bool"
        }
      ],
      "stateMutability": "nonpayable",
      "type": "function"
    },
    {
      "inputs": [
        {
          "internalType": "bytes32",
          "name": "vouchId",
          "type": "bytes32"
        }
      ],
      "name": "revoked",
      "outputs": [
        {
          "internalType": "uint256",
          "name": "",
          "type": "uint256"
        }
      ],
      "stateMutability": "view",
      "type": "function"
    },
    {
      "inputs": [
        {
          "internalType": "address",
          "name": "",
          "type": "address"
        },
        {
          "internalType": "uint256",
          "name": "",
          "type": "uint256"
        }
      ],
      "name": "userInfo",
      "outputs": [
        {
          "internalType": "bytes32",
          "name": "",
          "type": "bytes32"
        }
      ],
      "stateMutability": "view",
      "type": "function"
    },
    {
      "inputs": [
        {
          "internalType": "bytes32",
          "name": "hash",
          "type": "bytes32"
        },
        {
          "internalType": "bytes",
          "name": "sig",
          "type": "bytes"
        }
      ],
      "name": "verifyVouchSig",
      "outputs": [
        {
          "internalType": "bool",
          "name": "success",
          "type": "bool"
        }
      ],
      "stateMutability": "pure",
      "type": "function"
    },
    {
      "inputs": [
        {
          "internalType": "bytes32",
          "name": "",
          "type": "bytes32"
        }
      ],
      "name": "vouchInfo",
      "outputs": [
        {
          "internalType": "address",
          "name": "sender",
          "type": "address"
        },
        {
          "internalType": "uint48",
          "name": "lastUpdateTime",
          "type": "uint48"
        },
        {
          "internalType": "uint48",
          "name": "revokedTime",
          "type": "uint48"
        }
      ],
      "stateMutability": "view",
      "type": "function"
    },
    {
      "inputs": [
        {
          "internalType": "bytes32",
          "name": "",
          "type": "bytes32"
        }
      ],
      "name": "vouchMsg",
      "outputs": [
        {
          "internalType": "string",
          "name": "",
          "type": "string"
        }
      ],
      "stateMutability": "view",
      "type": "function"
    },
    {
      "inputs": [
        {
          "internalType": "bytes32",
          "name": "vouchId",
          "type": "bytes32"
        }
      ],
      "name": "vouchSender",
      "outputs": [
        {
          "internalType": "address",
          "name": "",
          "type": "address"
        }
      ],
      "stateMutability": "view",
      "type": "function"
    }
  ],
  "bytecode": {
    "object": "0x608060405234801561001057600080fd5b506108ef806100206000396000f3fe608060405234801561001057600080fd5b50600436106100a95760003560e01c8063328a93e811610071578063328a93e8146101a85780638cf2f9b5146101d7578063b75c7dc6146101fa578063d4acaf6c1461020d578063f6bb93ec14610238578063fcfdd1191461026157600080fd5b8063047a038f146100ae578063060eb2f5146100d45780631d09cb501461010357806321ce919d1461017557806331e1f5f714610188575b600080fd5b6100c16100bc366004610654565b610288565b6040519081526020015b60405180910390f35b6100c16100e23660046106c6565b600090815260208190526040902054600160a01b900465ffffffffffff1690565b6101476101113660046106c6565b6000602081905290815260409020546001600160a01b0381169065ffffffffffff600160a01b8204811691600160d01b90041683565b604080516001600160a01b03909416845265ffffffffffff92831660208501529116908201526060016100cb565b6100c16101833660046106df565b6102e2565b61019b6101963660046106c6565b610313565b6040516100cb919061074f565b6100c16101b63660046106c6565b600090815260208190526040902054600160d01b900465ffffffffffff1690565b6101ea6101e5366004610762565b6103ad565b60405190151581526020016100cb565b6101ea6102083660046106c6565b610412565b61022061021b3660046107de565b610424565b6040516001600160a01b0390911681526020016100cb565b6102206102463660046106c6565b6000908152602081905260409020546001600160a01b031690565b6100c17f2c74dac1fd3ae13388f7a55930dfea50b1d0adc16bacffd74160c1dd2170b28281565b6000307f2c74dac1fd3ae13388f7a55930dfea50b1d0adc16bacffd74160c1dd2170b2828585856040516020016102c3959493929190610839565b6040516020818303038152906040528051906020012090509392505050565b600260205281600052604060002081815481106102fe57600080fd5b90600052602060002001600091509150505481565b6001602052600090815260409020805461032c9061087f565b80601f01602080910402602001604051908101604052809291908181526020018280546103589061087f565b80156103a55780601f1061037a576101008083540402835291602001916103a5565b820191906000526020600020905b81548152906001019060200180831161038857829003601f168201915b505050505081565b60006103ef8484848080601f01602080910402602001604051908101604052809392919081815260200183838082843760009201919091525061042492505050565b6001600160a01b03166000036104075750600061040b565b5060015b9392505050565b600061041e8233610460565b92915050565b600081516041036104575760208201516040830151606084015160001a61044d868285856104f6565b935050505061041e565b50600092915050565b6000828152602081905260408120546001600160a01b038381169116146104c45760405162461bcd60e51b81526020600482015260146024820152730a6cadcc8cae440c8d2c840dcdee840ecdeeac6d60631b604482015260640160405180910390fd5b5050600090815260208190526040902080546001600160d01b0316600160d01b4265ffffffffffff1602179055600190565b60007f7fffffffffffffffffffffffffffffff5d576e7357a4501ddfe92f46681b20a0821115610528575060006105a4565b6040805160008082526020820180845288905260ff871692820192909252606081018590526080810184905260019060a0016020604051602081039080840390855afa15801561057c573d6000803e3d6000fd5b5050604051601f1901519150506001600160a01b0381166105a15760009150506105a4565b90505b949350505050565b80356001600160a01b03811681146105c357600080fd5b919050565b634e487b7160e01b600052604160045260246000fd5b600067ffffffffffffffff808411156105f9576105f96105c8565b604051601f8501601f19908116603f01168101908282118183101715610621576106216105c8565b8160405280935085815286868601111561063a57600080fd5b858560208301376000602087830101525050509392505050565b60008060006060848603121561066957600080fd5b610672846105ac565b9250610680602085016105ac565b9150604084013567ffffffffffffffff81111561069c57600080fd5b8401601f810186136106ad57600080fd5b6106bc868235602084016105de565b9150509250925092565b6000602082840312156106d857600080fd5b5035919050565b600080604083850312156106f257600080fd5b6106fb836105ac565b946020939093013593505050565b6000815180845260005b8181101561072f57602081850181015186830182015201610713565b506000602082860101526020601f19601f83011685010191505092915050565b60208152600061040b6020830184610709565b60008060006040848603121561077757600080fd5b83359250602084013567ffffffffffffffff8082111561079657600080fd5b818601915086601f8301126107aa57600080fd5b8135818111156107b957600080fd5b8760208285010111156107cb57600080fd5b6020830194508093505050509250925092565b600080604083850312156107f157600080fd5b82359150602083013567ffffffffffffffff81111561080f57600080fd5b8301601f8101851361082057600080fd5b61082f858235602084016105de565b9150509250929050565b6001600160a01b0386811682526020820186905284811660408301528316606082015260a06080820181905260009061087490830184610709565b979650505050505050565b600181811c9082168061089357607f821691505b6020821081036108b357634e487b7160e01b600052602260045260246000fd5b5091905056fea264697066735822122057dc51c73185f554017b87a197ce471f0a2129cb92ad2f2e35e3344be611bbfb64736f6c63430008110033",
    "linkReferences": {}
  },
  "methodIdentifiers": {
    "VOUCH_ID()": "fcfdd119",
    "ecrecoverFromSig(bytes32,bytes)": "d4acaf6c",
    "generateVouchHash(address,address,string)": "047a038f",
    "lastUpdated(bytes32)": "060eb2f5",
    "revoke(bytes32)": "b75c7dc6",
    "revoked(bytes32)": "328a93e8",
    "userInfo(address,uint256)": "21ce919d",
    "verifyVouchSig(bytes32,bytes)": "8cf2f9b5",
    "vouchInfo(bytes32)": "1d09cb50",
    "vouchMsg(bytes32)": "31e1f5f7",
    "vouchSender(bytes32)": "f6bb93ec"
  },
  "id": 13
}